:10146F00D3EF9400EE94004010007D027CC7DCFEA9
:09147F00DDFCEF1F70EA1E80E79E
:011488002241
:10000300546573740000000000000000000000004D
:100013000000000000000000F800000000000000E5
:10002300333000000000100C06100C060000000026
:10003300000000000040C07840C0784000043F0446
:10004300043F040400007088FC08300000001820FE
:10005300FF211E0000F008F000E018000000211C42
:10006300031E211E0000F00888700000001E2123DB
:10007300241927211010160E0000000000000000B4
:100083000000000000000000E0180402000000006F
:10009300071820400000020418E000000000402080
:1000A3001807000000404080F08040400002020139
:1000B3000F01020200000000F00000000001010136
:1000C3001F01010100000000000000000080B0706B
:1000D300000000000000000000000000000001011B
:1000E30001010101010000000000000000003030A8
:1000F3000000000000000000008060180400601889
:10010300060100000000E010080810E000000F10D6
:100113002020100F00001010F80000000000202025
:100123003F20200000007008080888700000302875
:10013300242221300000300888884830000018202D
:100143002020110E000000C02010F800000007045A
:1001530024243F240000F808888808080000192197
:100163002020110E0000E0108888180000000F11F5
:100173002020110E0000380808C8380800000000CD
:100183003F000000000070880808887000001C22EF
:100193002121221C0000E010080810E000000031BB
:1001A3002222110F00000000C0C000000000000068
:1001B30030300000000000008000000000000080DC
:1001C30060000000000000804020100800000102D1
:1001D3000408102000404040404040400004040414
:1001E30004040404000008102040800000002010D4
:1001F3000804020100007048080808F0000000002D
:100203003036010000C030C828E810E00007182786
:100213002423140B000000C038E0000000203C231E
:10022300020227382008F8888888700000203F20C1
:100233002020110E00C030080808083800071820D5
:10024300202010080008F808080810E000203F20CC
:100253002020100F0008F88888E8081000203F20AD
:10026300202320180008F88888E8081000203F2081
:100273000003000000C030080808380000071820F9
:1002830020221E020008F808000008F808203F2179
:100293000101213F20000808F80808000000202081
:1002A3003F2020000000000808F8080800C08080F4
:1002B300807F00000008F888C028180800203F202D
:1002C300012638200008F8080000000000203F2025
:1002D300202020300008F8F800F8F80800203F003C
:1002E3003F003F200008F830C00008F808203F20F6
:1002F3000007183F00E01008080810E0000F102066
:100303002020100F0008F808080808F000203F21FB
:100313000101010000E01008080810E0000F182494
:100323002438504F0008F8888888887000203F20C0
:1003330000030C30200070880808083800003820BB
:100343002121221C00180808F808081800000020C2
:100353003F2000000008F808000008F808001F20EC
:100363002020201F000878880000C83808000007F4
:10037300380E010000F80800F80008F800033C07F5
:1003830000073C0300081868808068180820302C98
:1003930003032C30200838C800C8380800000020A8
:1003A3003F2000000010080808C83808002038263D
:1003B3002120201800000000FE02020200000000BD
:1003C3007F40404000000C30C000000000000000EF
:1003D300010638C00000020202FE00000000404097
:1003E300407F00000000000402020204000000003D
:1003F300000000000000000000000000008080807A
:100403008080808080000202040000000000000061
:10041300000000000000008080808000000019249C
:100423002222223F2008F8008080000000003F11B4
:100433002020110E000000008080800000000E11BB
:100443002020201100000000808088F800000E1199
:100453002020103F200000808080800000001F22A9
:100463002222221300008080F08888881800202030
:100473003F202000000000808080808000006B947B
:10048300949493600008F8008080800000203F214E
:100493000000203F200080989800000000002020EA
:1004A3003F20200000000000809898000000C080DA
:1004B30080807F000008F8000080808000203F24B7
:1004C300022D302000000808F80000000000202062
:1004D3003F202000008080808080808000203F209B
:1004E300003F20003F8080008080800000203F216B
:1004F3000000203F200000808080800000001F203B
:100503002020201F00808000808000000080FFA149
:100513002020110E000000008080808000000E115A
:100523002020A0FF80808080008080800020203FEA
:10053300212000010000008080808080000033249F
:100543002424241900008080E08080000000000043
:100553001F202000008080000000808000001F20FA
:100563002020103F20808080000080808000010ECA
:10057300300806010080800080008080800F300CEE
:10058300030C300F00008080008080800000203149
:100593002E0E312000808080000080808080818E3C
:1005A3007018060100008080808080800000213068
:1005B3002C2221300000000000807C020200000099
:1005C30000003F404000000000FF0000000000006A
:1005D30000FF0000000002027C8000000000404099
:1005E3003F000000000006010102020404000000B5
:0505F300000000000003
:1011D400E4F508F509F50AF50B1210F51214897FE8
:1011E400E87E0312146F7B747D017F01121324C205
:1011F400A17BFF7A0079037D027F011213FC751134
:10120400407510E2750F01750E007512067D017FA1
:10121400028029E50945087028120F088E0A8F0BF1
:10122400850A08850B09E50B450A60E7E48F118EF2
:1012340010F50FF50E7512027D017F0312125E8008
:10124400D2AF09AE0812100DEF4E70C7F508F509BC
:0A125400121489E4F50AF50B80B9C5
:1005F80000000000000000000000000000000000F3
:10060800000000F800000000000000333000000087
:1006180000100C06100C060000000000000000008E
:1006280040C07840C0784000043F04043F04040000
:10063800007088FC08300000001820FF211E000010
:10064800F008F000E018000000211C031E211E0025
:1006580000F00888700000001E21232419272110AB
:1006680010160E000000000000000000000000004E
:10067800000000E0180402000000000718204000F5
:1006880000020418E00000000040201807000000E5
:10069800404080F0804040000202010F0102020049
:1006A800000000F0000000000101011F010101002D
:1006B800000000000000000080B070000000000092
:1006C800000000000000000000010101010101011B
:1006D80000000000000000000030300000000000B2
:1006E8000000000080601804006018060100000087
:1006F80000E010080810E000000F102020100F0084
:10070800001010F8000000000020203F202000000A
:100718000070080808887000003028242221300062
:1007280000300888884830000018202020110E006A
:100738000000C02010F8000000070424243F240013
:1007480000F80888880808000019212020110E00E8
:1007580000E0108888180000000F112020110E00FA
:1007680000380808C83808000000003F00000000F2
:100778000070880808887000001C222121221C00B3
:1007880000E010080810E0000000312222110F00DC
:10079800000000C0C0000000000000303000000071
:1007A80000000080000000000000806000000000E1
:1007B80000008040201008000001020408102000FA
:1007C8004040404040404000040404040404040045
:1007D80000081020408000000020100804020100DA
:1007E800007048080808F0000000003036010000DA
:1007F800C030C828E810E0000718272423140B008D
:100808000000C038E0000000203C23020227382006
:1008180008F8888888700000203F202020110E00EA
:10082800C0300808080838000718202020100800E1
:1008380008F808080810E000203F202020100F00CA
:1008480008F88888E8081000203F20202320180096
:1008580008F88888E8081000203F200003000000FE
:10086800C03008080838000007182020221E02009F
:1008780008F808000008F808203F210101213F205E
:10088800000808F8080800000020203F2020000089
:1008980000000808F8080800C08080807F00000079
:1008A80008F888C028180800203F200126382000B2
:1008B80008F8080000000000203F20202020300019
:1008C80008F8F800F8F80800203F003F003F200033
:1008D80008F830C00008F808203F200007183F003B
:1008E800E01008080810E0000F10202020100F006A
:1008F80008F808080808F000203F2101010100005D
:10090800E01008080810E0000F18242438504F00A1
:1009180008F8888888887000203F2000030C302061
:1009280000708808080838000038202121221C009F
:10093800180808F8080818000000203F20000000E8
:1009480008F808000008F808001F202020201F00D1
:100958000878880000C83808000007380E01000031
:10096800F80800F80008F800033C0700073C0300FB
:10097800081868808068180820302C03032C302061
:100988000838C800C83808000000203F20000000D0
:1009980010080808C8380800203826212020180028
:1009A800000000FE020202000000007F40404000FC
:1009B800000C30C000000000000000010638C00034
:1009C80000020202FE000000004040407F000000DC
:1009D8000000040202020400000000000000000001
:1009E80000000000000000008080808080808080FF
:1009F80000020204000000000000000000000000E7
:100A080000008080808000000019242222223F20DC
:100A180008F8008080000000003F112020110E001F
:100A28000000008080800000000E112020201100AE
:100A3800000000808088F800000E112020103F2060
:100A48000000808080800000001F222222221300E4
:100A5800008080F0888888180020203F202000002F
:100A68000000808080808000006B949494936000E4
:100A780008F8008080800000203F210000203F20EF
:100A880000809898000000000020203F20200000EF
:100A9800000000809898000000C08080807F0000DF
:100AA80008F8000080808000203F24022D302000BC
:100AB800000808F8000000000020203F2020000067
:100AC8008080808080808000203F20003F20003F81
:100AD8008080008080800000203F210000203F208F
:100AE8000000808080800000001F202020201F0040
:100AF800808000808000000080FFA12020110E006F
:100B08000000008080808000000E112020A0FF805F
:100B1800808080008080800020203F21200001000C
:100B28000000808080808000003324242424190061
:100B3800008080E0808000000000001F202000006E
:100B48008080000000808000001F202020103F20AF
:100B5800808080000080808000010E30080601003F
:100B680080800080008080800F300C030C300F00E4
:100B780000808000808080000020312E0E3120000F
:100B8800808080000080808080818E70180601003F
:100B980000808080808080000021302C222130005D
:100BA80000000000807C020200000000003F40407E
:100BB80000000000FF00000000000000FF0000002F
:100BC8000002027C800000000040403F000000005E
:100BD80000060101020204040000000000000000F9
:0914BE00D2B2D2B3C2B2C2B32211
:0714C700C2B2D2B3D2B2227F
:0713C800AC071214BE7F7890
:0213CF00AD0768
:1013D100E4FB7E007480A803088006CEA2E713CE4A
:1013E10013D8F8FFEDF582EF558224FF92B2D2B304
:0A13F100C2B30BBB08DCD2B3C2B3D9
:0113FB0022CF
:1014A2001213C8E4FF1213CFAF041213CF0214C7F2
:10144F003EF583E5822AF582E43583F583E493FF45
:10145F001213C87F401213CFAF041213CF0214C759
:09142A00FFE5151475F008A4FD9E
:10143300AA05EF44B0FF1214A2EA54F0C4540F44B7
:0C14430010FF1214A2EA540FFF0214A2C2
:10148900E4F9AF01E4FD121433E4FAE4FF12145F46
:081499000ABA80F709B908EA5C
:0114A1002228
:061324008F148D15A903D2
:10132A00E5141425E012142AE4FAE9FF3395E0FEE5
:10133A00EFC4F8540FC868FFEEC454F048FE74F8BE
:10134A002FF582740312144F0ABA08DEE51425E059
:10135A001412142AE4FAE9FF3395E0FEEFC4F854B4
:10136A000FC868FFEEC454F048FE74002FF582746B
:08137A000412144F0ABA08DE48
:011382002248
:0A13FC008F0C8D0D8B0E8A0F8910E7
:10140600E4F511AB0EAA0FA910851182758300129F
:101416000D8DFB600EE50D2511FDAF0C1213240595
:031426001180E052
:0114290022A0
:081383008F178E168D158C14D6
:10138B00E4751F01F51EF51DF51C781874FF120E80
:10139B00EAEC4D4E4F601DAF1FAE1EAD1DAC1CAB2E
:1013AB0017AA16A915A814120DBA8F1F8E1E8D1D04
:0C13BB008C1C80D6AF1FAE1EAD1DAC1CFC
:0113C7002203
:04125E008F0C8D0D57
:10126200E4F513E513C395125054C3E5129513FF29
:10127200E49400CF24FFCF34FFFE3395E08F1B8E22
:101282001AF519F5187F0A7E007D007C001213837F
:10129200A804A905AA06AB07AF11AE10AD0FAC0E9C
:1012A200120E45E47B0AFAF9F8120E45EB2430FBE4
:0E12B200E50D2513FDAF0C121324051380A5C6
:0112C000220B
:0412C1008F208B22CD
:1012C500E4F527F528E5235407700BE523131313DD
:1012D500541FF52A800AE523131313541F04F52A16
:1012E5008D2AE52AC395235035AD20AF2A12143334
:1012F500852029E529C395225020AB24AA25A926B6
:101305000528E528AE277002052714F5828E83127D
:0E1315000D8DFF12145F052980D9052A80C4B2
:0113230022A7
:1010F500E4F50FF50EF50DF50CE47FC8FEFDFCAB30
:101105000FAA0EA90DA80CC3120ED7504CE4F51367
:10111500F512F511F510E47FF47E01FDFCAB13AA81
:1011250012A911A810C3120ED75017E5132401F503
:1011350013E43512F512E43511F511E43510F51007
:1011450080D4E50F2401F50FE4350EF50EE4350DD9
:10115500F50DE4350CF50C80A07FAE1214A27FD5F9
:101165001214A27F801214A27FA81214A27F3F122C
:1011750014A27FD31214A2E4FF1214A27F4012140A
:10118500A27FA11214A27FC81214A27FDA1214A2A0
:101195007F121214A27F811214A27FCF1214A27F94
:1011A500D91214A27FF11214A27FDB1214A27F3090
:1011B5001214A27FA41214A27FA61214A27F8D126C
:0F11C50014A27F141214A27FAF1214A202148975
:100BE8007590FFC2932094167F147E0012146F3004
:100BF80094FD7F147E0012146F7E007F0D222095D5
:100C0800167F147E0012146F3095FD7F147E00123B
:100C1800146F7E007F09222096167F147E0012141E
:100C28006F3096FD7F147E0012146F7E007F0522C0
:100C38002097167F147E0012146F3097FD7F147E64
:100C48000012146F7E007F0122D293C29220941664
:100C58007F147E0012146F3094FD7F147E001214EE
:100C68006F7E007F0E222095167F147E0012146F6F
:100C78003095FD7F147E0012146F7E007F0A2220BB
:100C880096167F147E0012146F3096FD7F147E0036
:100C980012146F7E007F06222097167F147E0012A2
:100CA800146F3097FD7F147E0012146F7E007F0250
:100CB80022D292C2912094167F147E0012146F30B3
:100CC80094FD7F147E0012146F7E007F0F22209502
:100CD800167F147E0012146F3095FD7F147E00126B
:100CE800146F7E007F0B222096167F147E0012144C
:100CF8006F3096FD7F147E0012146F7E007F0722EE
:100D08002097167F147E0012146F3097FD7F147E93
:100D18000012146F7E007F0322D291C29020941695
:100D28007F147E0012146F3094FD7F147E0012141D
:100D38006F7E007F10222095167F147E0012146F9C
:100D48003095FD7F147E0012146F7E007F0C2220E8
:100D580096167F147E0012146F3096FD7F147E0065
:100D680012146F7E007F08222097167F147E0012CF
:100D7800146F3097FD7F147E0012146F7E007F047D
:050D880022E4FEFF2241
:100F08007590FFC29320940C7F147E0012146F7E9C
:100F1800007F0D2220950C7F147E0012146F7E0036
:100F28007F092220960C7F147E0012146F7E007FAA
:100F3800052220970C7F147E0012146F7E007F011B
:100F480022D293C29220940C7F147E0012146F7EDA
:100F5800007F0E2220950C7F147E0012146F7E00F5
:100F68007F0A2220960C7F147E0012146F7E007F69
:100F7800062220970C7F147E0012146F7E007F02D9
:100F880022D292C29120940C7F147E0012146F7E9C
:100F9800007F0F2220950C7F147E0012146F7E00B4
:100FA8007F0B2220960C7F147E0012146F7E007F28
:100FB800072220970C7F147E0012146F7E007F0397
:100FC80022D291C29020940C7F147E0012146F7E5E
:100FD800007F102220950C7F147E0012146F7E0073
:100FE8007F0C2220960C7F147E0012146F7E007FE7
:100FF800082220970C7F147E0012146F7E007F0455
:0510080022E4FEFF22BE
:10100D007590FFEE60030210B4EF14B410004003AE
:10101D000210B490102E75F003A4C58325F0C5837E
:10102D007302105E02106202106602106A021074E2
:10103D0002107802107C02108002108A02108E02BB
:10104D0010920210960210A00210A40210A8021015
:10105D00ACC293800AC2928006C2918002C2907582
:10106D000C00750D078040C293800AC2928006C2A3
:10107D00918002C290750C00750D06802AC2938076
:10108D000AC2928006C2918002C290750C00750D45
:10109D00058014C293800AC2928006C2918002C25A
:1010AD0090750C00750D04E50D6404450C7005205C
:1010BD0094028025E50D6405450C70052095028090
:1010CD0018E50D6406450C7005209602800BE50DA4
:1010DD006407450C7007209704FE7F01227F147E64
:0710ED000012146FE4FEFF86
:0110F40022D9
:030000000214B235
:0C14B200787FE4F6D8FD75812A0211D481
:100D8D00BB010CE58229F582E5833AF583E022501B
:100D9D0006E92582F8E622BBFE06E92582F8E22265
:0D0DAD00E58229F582E5833AF583E493227F
:100DBA00E88FF0A4CC8BF0A42CFCE98EF0A42CFCD8
:100DCA008AF0EDA42CFCEA8EF0A4CDA8F08BF0A456
:100DDA002DCC3825F0FDE98FF0A42CCD35F0FCEBB5
:100DEA008EF0A4FEA9F0EB8FF0A4CFC5F02ECD397A
:0F0DFA00FEE43CFCEAA42DCE35F0FDE43CFC22E7
:100E090075F008758200EF2FFFEE33FECD33CDCCA0
:100E190033CCC58233C5829BED9AEC99E582984023
:100E29000CF582EE9BFEED9AFDEC99FC0FD5F0D600
:100E3900E4CEFBE4CDFAE4CCF9A88222B800C1B92A
:100E49000059BA002DEC8BF084CFCECDFCE5F0CB68
:100E5900F97818EF2FFFEE33FEED33FDEC33FCEBA1
:100E690033FB10D703994004EB99FB0FD8E5E4F95C
:100E7900FA227818EF2FFFEE33FEED33FDEC33FC49
:100E8900C933C910D7059BE99A4007EC9BFCE99A3D
:100E9900F90FD8E0E4C9FAE4CCFB2275F010EF2F82
:100EA900FFEE33FEED33FDCC33CCC833C810D70782
:100EB9009BEC9AE899400AED9BFDEC9AFCE899F8BD
:0E0EC9000FD5F0DAE4CDFBE4CCFAE4C8F92250
:100ED700EB9FF5F0EA9E42F0E99D42F0E89C45F071
:010EE70022E8
:100EE8007401FF3395E0FEFDFC080808E6CF2FF6F5
:100EF80018E6CE3EF618E6CD3DF618E6CC3CF622CE
:00000001FF
