:1016A500D3EF9400EE94004010007D027CC7DCFE71
:0916B500DDFCEF1F70EA1E80E766
:0116BE002209
:10000E004D6F6465733A00312E5541525400322EB5
:10001E004155544F00312E5472693100322E5472B4
:10002E0069320055415254006D6F6465005465731A
:10003E00740000000000000000000000000000003E
:10004E000000000000F80000000000000033300047
:10005E00000000100C06100C06000000000000004E
:10006E00000040C07840C0784000043F04043F04C4
:10007E000400007088FC08300000001820FF211ECC
:10008E000000F008F000E018000000211C031E2103
:10009E001E0000F00888700000001E21232419277E
:1000AE00211010160E0000000000000000000000DD
:1000BE000000000000E018040200000000071820F5
:1000CE00400000020418E000000000402018070065
:1000DE000000404080F0804040000202010F01020B
:1000EE000200000000F0000000000101011F0101EC
:1000FE000100000000000000000080B07000000051
:10010E0000000000000000000000000101010101DC
:10011E00010100000000000000000030300000006F
:10012E000000000000008060180400601806010046
:10013E00000000E010080810E000000F1020201052
:10014E000F00001010F8000000000020203F2020BB
:10015E000000007008080888700000302824222152
:10016E003000003008888848300000182020201108
:10017E000E000000C02010F8000000070424243FE9
:10018E00240000F808888808080000192120201192
:10019E000E0000E0108888180000000F11202011BA
:1001AE000E0000380808C83808000000003F0000A4
:1001BE0000000070880808887000001C222121228F
:1001CE001C0000E010080810E0000000312222118F
:1001DE000F00000000C0C000000000000030300022
:1001EE0000000000008000000000000080600000A1
:1001FE0000000000804020100800000102040810DA
:10020E0020004040404040404000040404040404E8
:10021E000400000810204080000000201008040296
:10022E000100007048080808F00000000030360198
:10023E000000C030C828E810E00007182724231457
:10024E000B000000C038E0000000203C2302022713
:10025E00382008F8888888700000203F2020201160
:10026E000E00C0300808080838000718202020109B
:10027E00080008F808080810E000203F2020201091
:10028E000F0008F88888E8081000203F202023205F
:10029E00180008F88888E8081000203F20000300A6
:1002AE000000C03008080838000007182020221E61
:1002BE00020008F808000008F808203F210101217B
:1002CE003F20000808F8080800000020203F2020EA
:1002DE00000000000808F8080800C08080807F0039
:1002EE00000008F888C028180800203F2001263892
:1002FE00200008F8080000000000203F20202020E9
:10030E00300008F8F800F8F80800203F003F003FE2
:10031E00200008F830C00008F808203F2000071819
:10032E003F00E01008080810E0000F1020202010F9
:10033E000F0008F808080808F000203F210101010D
:10034E000000E01008080810E0000F1824243850B0
:10035E004F0008F8888888887000203F2000030C22
:10036E00302000708808080838000038202121222B
:10037E001C00180808F8080818000000203F20008C
:10038E00000008F808000008F808001F20202020B0
:10039E001F000878880000C83808000007380E01D2
:1003AE000000F80800F80008F800033C0700073CBE
:1003BE000300081868808068180820302C03032C6E
:1003CE0030200838C800C83808000000203F200040
:1003DE00000010080808C838080020382621202000
:1003EE001800000000FE020202000000007F4040E4
:1003FE004000000C30C00000000000000001063874
:10040E00C00000020202FE000000004040407F00DB
:10041E0000000000040202020400000000000000C0
:10042E0000000000000000000000808080808080BE
:10043E0080800002020400000000000000000000A6
:10044E0000000000808080800000001924222222FB
:10045E003F2008F8008080000000003F112020118E
:10046E000E000000008080800000000E1120202071
:10047E001100000000808088F800000E112020106E
:10048E003F200000808080800000001F2222222258
:10049E001300008080F0888888180020203F2020DC
:1004AE0000000000808080808000006B9494949304
:1004BE00600008F8008080800000203F21000020AE
:1004CE003F2000809898000000000020203F202050
:1004DE000000000000809898000000C08080807F9F
:1004EE00000008F8000080808000203F24022D309C
:1004FE002000000808F8000000000020203F202007
:10050E0000008080808080808000203F20003F207F
:10051E00003F8080008080800000203F210000206E
:10052E003F200000808080800000001F20202020BF
:10053E001F00808000808000000080FFA12020111D
:10054E000E000000008080808000000E112020A090
:10055E00FF80808080008080800020203F2120004E
:10056E000100000080808080800000332424242439
:10057E001900008080E0808000000000001F202015
:10058E0000008080000000808000001F20202010CE
:10059E003F20808080000080808000010E300806A1
:1005AE00010080800080008080800F300C030C30B2
:1005BE000F0000808000808080000020312E0E31E0
:1005CE002000808080000080808080818E701806E0
:1005DE00010000808080808080000021302C22214C
:1005EE00300000000000807C020200000000003F8E
:1005FE00404000000000FF00000000000000FF006F
:10060E0000000002027C800000000040403F00001D
:10061E0000000006010102020404000000000000B8
:02062E000000CA
:0816FD00022B005A022D00002F
:03000B000214A636
:1014A600C0E0C0F0C0D075D000C000C004C005C008
:1014B60006C007758AA4758CFF0530E530700205F5
:1014C6002FAE2FFF7C007DC8120C4D8C2F8D30AEB9
:1014D6002BAF2C7C007D0C120C4DEF2405FFE43E57
:1014E600FEC3E5309FE52F9E5004D2A18002C2A123
:1014F600D007D006D005D004D000D0D0D0F0D0E0B0
:0115060032B2
:01000A0022D3
:01170F0022B7
:10156600E52E452D7018EF64024E7006F52D752E8A
:101576000122EF64014E7006F52D752E0222E52E2E
:101586006401452D701AEF64024E700302000AEFE3
:1015960064014E700302170FEF640B4E7002800E4B
:1015A600E52E6402452D700AEF640B4E7004F52D8E
:0315B600F52E22ED
:10136700C2AF1216BFE52E452D70277BFF7A007995
:101377000E7D017F011216327BFF7A0079157D0100
:101387007F021216327BFF7A00791C7D017F0312E0
:101397001632E52E6401452D701A7BFF7A007923FA
:1013A7007D017F011216327BFF7A00792A7D017F4A
:1013B70002121632E52E6402452D701A7BFF7A0061
:1013C70079317D017F011216327BFF7A0079367DF4
:0913D700017F02121632D2AF228E
:1012ED00E4F508F509F50AF50B1211821216D87FEF
:1012FD00E87E031216A57B747D017F011215077B15
:10130D00FF7A00793B7D027F01121632751140750F
:10131D0010E2750F01750E007512067D017F021228
:10132D0013E0801CE5094508701B120F958E0A8F7E
:10133D000B850A08850B09E50B450A60E712156652
:10134D0012136780DFAF09AE0812109AEF4E70D4FA
:0A135D00F508F509F50AF50B80CA42
:1006300000000000000000000000000000000000BA
:10064000000000F80000000000000033300000004F
:1006500000100C06100C0600000000000000000056
:1006600040C07840C0784000043F04043F040400C8
:10067000007088FC08300000001820FF211E0000D8
:10068000F008F000E018000000211C031E211E00ED
:1006900000F00888700000001E2123241927211073
:1006A00010160E0000000000000000000000000016
:1006B000000000E0180402000000000718204000BD
:1006C00000020418E00000000040201807000000AD
:1006D000404080F0804040000202010F0102020011
:1006E000000000F0000000000101011F01010100F5
:1006F000000000000000000080B07000000000005A
:1007000000000000000000000001010101010101E2
:100710000000000000000000003030000000000079
:10072000000000008060180400601806010000004E
:1007300000E010080810E000000F102020100F004B
:10074000001010F8000000000020203F20200000D2
:10075000007008080888700000302824222130002A
:1007600000300888884830000018202020110E0032
:100770000000C02010F8000000070424243F2400DB
:1007800000F80888880808000019212020110E00B0
:1007900000E0108888180000000F112020110E00C2
:1007A00000380808C83808000000003F00000000BA
:1007B0000070880808887000001C222121221C007B
:1007C00000E010080810E0000000312222110F00A4
:1007D000000000C0C0000000000000303000000039
:1007E00000000080000000000000806000000000A9
:1007F00000008040201008000001020408102000C2
:10080000404040404040400004040404040404000C
:1008100000081020408000000020100804020100A1
:10082000007048080808F0000000003036010000A1
:10083000C030C828E810E0000718272423140B0054
:100840000000C038E0000000203C230202273820CE
:1008500008F8888888700000203F202020110E00B2
:10086000C0300808080838000718202020100800A9
:1008700008F808080810E000203F202020100F0092
:1008800008F88888E8081000203F2020232018005E
:1008900008F88888E8081000203F200003000000C6
:1008A000C03008080838000007182020221E020067
:1008B00008F808000008F808203F210101213F2026
:1008C000000808F8080800000020203F2020000051
:1008D00000000808F8080800C08080807F00000041
:1008E00008F888C028180800203F2001263820007A
:1008F00008F8080000000000203F202020203000E1
:1009000008F8F800F8F80800203F003F003F2000FA
:1009100008F830C00008F808203F200007183F0002
:10092000E01008080810E0000F10202020100F0031
:1009300008F808080808F000203F21010101000024
:10094000E01008080810E0000F18242438504F0069
:1009500008F8888888887000203F2000030C302029
:1009600000708808080838000038202121221C0067
:10097000180808F8080818000000203F20000000B0
:1009800008F808000008F808001F202020201F0099
:100990000878880000C83808000007380E010000F9
:1009A000F80800F80008F800033C0700073C0300C3
:1009B000081868808068180820302C03032C302029
:1009C0000838C800C83808000000203F2000000098
:1009D00010080808C83808002038262120201800F0
:1009E000000000FE020202000000007F40404000C4
:1009F000000C30C000000000000000010638C000FC
:100A000000020202FE000000004040407F000000A3
:100A100000000402020204000000000000000000C8
:100A200000000000000000008080808080808080C6
:100A300000020204000000000000000000000000AE
:100A400000008080808000000019242222223F20A4
:100A500008F8008080000000003F112020110E00E7
:100A60000000008080800000000E11202020110076
:100A7000000000808088F800000E112020103F2028
:100A80000000808080800000001F222222221300AC
:100A9000008080F0888888180020203F20200000F7
:100AA0000000808080808000006B949494936000AC
:100AB00008F8008080800000203F210000203F20B7
:100AC00000809898000000000020203F20200000B7
:100AD000000000809898000000C08080807F0000A7
:100AE00008F8000080808000203F24022D30200084
:100AF000000808F8000000000020203F202000002F
:100B00008080808080808000203F20003F20003F48
:100B10008080008080800000203F210000203F2056
:100B20000000808080800000001F202020201F0007
:100B3000808000808000000080FFA12020110E0036
:100B40000000008080808000000E112020A0FF8027
:100B5000808080008080800020203F2120000100D4
:100B60000000808080808000003324242424190029
:100B7000008080E0808000000000001F2020000036
:100B80008080000000808000001F202020103F2077
:100B9000808080000080808000010E300806010007
:100BA00080800080008080800F300C030C300F00AC
:100BB00000808000808080000020312E0E312000D7
:100BC000808080000080808080818E701806010007
:100BD00000808080808080000021302C2221300025
:100BE00000000000807C020200000000003F404046
:100BF00000000000FF00000000000000FF000000F7
:100C00000002027C800000000040403F0000000025
:100C100000060101020204040000000000000000C0
:09170600D2B3D2B2C2B3C2B222C6
:07000300C2B3D2B2D2B32256
:0715FE00AC071217067F780D
:02160500AD072F
:10160700E4FB7E007480A803088006CEA2E713CE11
:1016170013D8F8FFEDF582EF558224FF92B3D2B2CB
:0A162700C2B20BBB08DCD2B2C2B2A3
:011631002296
:1016ED001215FEE4FF121605AF04121605020003D3
:101685003EF583E5822AF582E43583F583E493FF0D
:101695001215FE7F40121605AF041216050200034F
:09166000FFE5151475F008A4FD66
:10166900AA05EF44B0FF1216EDEA54F0C4540F4432
:0C16790010FF1216EDEA540FFF0216EDF0
:1016BF00E4F9AF01E4FD121669E4FAE4FF1216959E
:0816CF000ABA80F709B908EA24
:0116D70022F0
:061507008F148D15A903ED
:10150D00E5141425E0121660E4FAE9FF3395E0FEC8
:10151D00EFC4F8540FC868FFEEC454F048FE7430A1
:10152D002FF58274041216850ABA08DEE51425E03B
:10153D0014121660E4FAE9FF3395E0FEEFC4F85497
:10154D000FC868FFEEC454F048FE74382FF582744E
:08155D00041216850ABA08DE2B
:011565002263
:0A1632008F0C8D0D8B0E8A0F8910AE
:10163C00E4F511AB0EAA0FA9108511827583001267
:10164C000C20FB600EE50D2511FDAF0C12150705E6
:03165C001180E01A
:01165F002268
:0815B9008F178E168D158C149E
:1015C100E4751F01F51EF51DF51C781874FF120D49
:1015D100D2EC4D4E4F601DAF1FAE1EAD1DAC1CAB0E
:1015E10017AA16A915A814120CA28F1F8E1E8D1DE5
:0C15F1008C1C80D6AF1FAE1EAD1DAC1CC4
:0115FD0022CB
:0413E0008F0C8D0DD4
:1013E400E4F513E513C395125054C3E5129513FFA6
:1013F400E49400CF24FFCF34FFFE3395E08F1B8E9F
:101404001AF519F5187F0A7E007D007C001215B9C3
:10141400A804A905AA06AB07AF11AE10AD0FAC0E18
:10142400120D2DE47B0AFAF9F8120D2DEB2430FB92
:0E143400E50D2513FDAF0C121507051380A55D
:011442002287
:041443008F208B2249
:10144700E4F527F528E5235407700BE52313131359
:10145700541FF52A800AE523131313541F04F52A92
:101467008D2AE52AC395235035AD20AF2A12166978
:10147700852029E529C395225020AB24AA25A92632
:101487000528E528AE277002052714F5828E8312FA
:0E1497000C20FF121695052980D9052A80C465
:0114A5002224
:10118200E4F50FF50EF50DF50CE47FC8FEFDFCABA2
:101192000FAA0EA90DA80CC3120DBF504CE4F513F3
:1011A200F512F511F510E47FF47E01FDFCAB13AAF4
:1011B20012A911A810C3120DBF5017E5132401F58F
:1011C20013E43512F512E43511F511E43510F5107A
:1011D20080D4E50F2401F50FE4350EF50EE4350D4C
:1011E200F50DE4350CF50C80A07FAE1216ED7FD51F
:1011F2001216ED7F801216ED7FA81216ED7F3F12B8
:1012020016ED7FD31216EDE4FF1216ED7F40121693
:10121200ED7FA11216ED7FC81216ED7FDA1216EDE0
:101222007F121216ED7F811216ED7FCF1216ED7F1F
:10123200D91216ED7FF11216ED7FDB1216ED7F301B
:101242001216ED7FA41216ED7FA61216ED7F8D12F7
:0F12520016ED7F141216ED7FAF1216ED0216BFC8
:100DF0007590FFC2932094167F147E001216A530C2
:100E000094FD7F147E001216A57E007F0D22209592
:100E1000167F147E001216A53095FD7F147E0012F9
:100E200016A57E007F09222096167F147E001216DA
:100E3000A53096FD7F147E001216A57E007F052248
:100E40002097167F147E001216A53097FD7F147E22
:100E5000001216A57E007F0122D293C29220941622
:100E60007F147E001216A53094FD7F147E001216AA
:100E7000A57E007F0E222095167F147E001216A5F7
:100E80003095FD7F147E001216A57E007F0A222079
:100E900096167F147E001216A53096FD7F147E00F4
:100EA0001216A57E007F06222097167F147E001260
:100EB00016A53097FD7F147E001216A57E007F02D6
:100EC00022D292C2912094167F147E001216A53071
:100ED00094FD7F147E001216A57E007F0F222095C0
:100EE000167F147E001216A53095FD7F147E001229
:100EF00016A57E007F0B222096167F147E00121608
:100F0000A53096FD7F147E001216A57E007F072275
:100F10002097167F147E001216A53097FD7F147E51
:100F2000001216A57E007F0322D291C29020941653
:100F30007F147E001216A53094FD7F147E001216D9
:100F4000A57E007F10222095167F147E001216A524
:100F50003095FD7F147E001216A57E007F0C2220A6
:100F600096167F147E001216A53096FD7F147E0023
:100F70001216A57E007F08222097167F147E00128D
:100F800016A53097FD7F147E001216A57E007F0403
:050F900022E4FEFF2237
:100F95007590FFC29320940C7F147E001216A57ED7
:100FA500007F0D2220950C7F147E001216A57E0071
:100FB5007F092220960C7F147E001216A57E007FE5
:100FC500052220970C7F147E001216A57E007F0156
:100FD50022D293C29220940C7F147E001216A57E15
:100FE500007F0E2220950C7F147E001216A57E0030
:100FF5007F0A2220960C7F147E001216A57E007FA4
:10100500062220970C7F147E001216A57E007F0213
:1010150022D292C29120940C7F147E001216A57ED6
:10102500007F0F2220950C7F147E001216A57E00EE
:101035007F0B2220960C7F147E001216A57E007F62
:10104500072220970C7F147E001216A57E007F03D1
:1010550022D291C29020940C7F147E001216A57E98
:10106500007F102220950C7F147E001216A57E00AD
:101075007F0C2220960C7F147E001216A57E007F21
:10108500082220970C7F147E001216A57E007F048F
:0510950022E4FEFF2231
:10109A007590FFEE6003021141EF14B41000400393
:1010AA000211419010BB75F003A4C58325F0C583D6
:1010BA00730210EB0210EF0210F30210F702110193
:1010CA0002110502110902110D02111702111B0268
:1010DA00111F02112302112D0211310211350211C1
:1010EA0039C293800AC2928006C2918002C2907568
:1010FA000C00750D078040C293800AC2928006C216
:10110A00918002C290750C00750D06802AC29380E8
:10111A000AC2928006C2918002C290750C00750DB7
:10112A00058014C293800AC2928006C2918002C2CC
:10113A0090750C00750D04E50D6404450C700520CE
:10114A0094028025E50D6405450C70052095028002
:10115A0018E50D6406450C7005209602800BE50D16
:10116A006407450C7007209704FE7F01227F147ED6
:07117A00001216A5E4FEFFC0
:01118100224B
:1016D8005389F0438901758CFF758AA4C28DD2A9FC
:0516E800D2AFD28C22FC
:0300000002126188
:0C126100787FE4F6D8FD7581300212A8F9
:100C2000BB010CE58229F582E5833AF583E0225089
:100C300006E92582F8E622BBFE06E92582F8E222D3
:0D0C4000E58229F582E5833AF583E49322ED
:100C4D00BC000BBE0029EF8DF084FFADF022E4CC8B
:100C5D00F875F008EF2FFFEE33FEEC33FCEE9DEC54
:100C6D00984005FCEE9DFE0FD5F0E9E4CEFD22ED9A
:100C7D00F8F5F0EE8420D21CFEADF075F008EF2FE4
:100C8D00FFED33FD4007985006D5F0F222C398FDD5
:050C9D000FD5F0EA2272
:100CA200E88FF0A4CC8BF0A42CFCE98EF0A42CFCF1
:100CB2008AF0EDA42CFCEA8EF0A4CDA8F08BF0A46F
:100CC2002DCC3825F0FDE98FF0A42CCD35F0FCEBCE
:100CD2008EF0A4FEA9F0EB8FF0A4CFC5F02ECD3993
:0F0CE200FEE43CFCEAA42DCE35F0FDE43CFC2200
:100CF10075F008758200EF2FFFEE33FECD33CDCCBA
:100D010033CCC58233C5829BED9AEC99E58298403C
:100D11000CF582EE9BFEED9AFDEC99FC0FD5F0D619
:100D2100E4CEFBE4CDFAE4CCF9A88222B800C1B943
:100D31000059BA002DEC8BF084CFCECDFCE5F0CB81
:100D4100F97818EF2FFFEE33FEED33FDEC33FCEBBA
:100D510033FB10D703994004EB99FB0FD8E5E4F975
:100D6100FA227818EF2FFFEE33FEED33FDEC33FC62
:100D7100C933C910D7059BE99A4007EC9BFCE99A56
:100D8100F90FD8E0E4C9FAE4CCFB2275F010EF2F9B
:100D9100FFEE33FEED33FDCC33CCC833C810D7079B
:100DA1009BEC9AE899400AED9BFDEC9AFCE899F8D6
:0E0DB1000FD5F0DAE4CDFBE4CCFAE4C8F92269
:100DBF00EB9FF5F0EA9E42F0E99D42F0E89C45F08A
:010DCF002201
:100DD0007401FF3395E0FEFDFC080808E6CF2FF60E
:100DE00018E6CE3EF618E6CD3DF618E6CC3CF622E7
:10126D000212EDE493A3F8E493A34003F68001F298
:10127D0008DFF48029E493A3F85407240CC8C33382
:10128D00C4540F4420C8834004F456800146F6DF51
:10129D00E4800B01020408102040809016FDE47ECE
:1012AD00019360BCA3FF543F30E509541FFEE49346
:1012BD00A360010ECF54C025E060A840B8E493A30D
:1012CD00FAE493A3F8E493A3C8C582C8CAC583CA38
:1012DD00F0A3C8C582C8CAC583CADFE9DEE780BEF0
:0117050000E3
:00000001FF
