:10191900D3EF9400EE94004010007D027CC7DCFEFA
:09192900DDFCEF1F70EA1E80E7EF
:011932002292
:10108D007590FFC29320940C7F147E001219197E67
:10109D00007F0D2220950C7F147E001219197E0001
:1010AD007F092220960C7F147E001219197E007F75
:1010BD00052220970C7F147E001219197E007F01E6
:1010CD0022D293C29220940C7F147E001219197EA5
:1010DD00007F0E2220950C7F147E001219197E00C0
:1010ED007F0A2220960C7F147E001219197E007F34
:1010FD00062220970C7F147E001219197E007F02A4
:10110D0022D292C29120940C7F147E001219197E66
:10111D00007F0F2220950C7F147E001219197E007E
:10112D007F0B2220960C7F147E001219197E007FF2
:10113D00072220970C7F147E001219197E007F0361
:10114D0022D291C29020940C7F147E001219197E28
:10115D00007F102220950C7F147E001219197E003D
:10116D007F0C2220960C7F147E001219197E007FB1
:10117D00082220970C7F147E001219197E007F041F
:05118D0022E4FEFF2238
:101192007590FFEE6003021239EF14B410004003A1
:1011A2000212399011B375F003A4C58325F0C583EB
:1011B200730211E30211E70211EB0211EF0211F9BE
:1011C2000211FD02120102120502120F0212130293
:1011D200121702121B02122502122902122D0212EA
:1011E20031C293800AC2928006C2918002C2907577
:1011F2000E00750F078040C293800AC2928006C219
:10120200918002C290750E00750F06802AC29380EB
:101212000AC2928006C2918002C290750E00750FBA
:10122200058014C293800AC2928006C2918002C2D3
:1012320090750E00750F04E50F6404450E700520CD
:1012420094028025E50F6405450E70052095028005
:1012520018E50F6406450E7005209602800BE50F17
:101262006407450E7007209704FE7F01227F147EDB
:0712720000121919E4FEFF50
:011279002252
:100672000000000000000000000000000000000078
:10068200000000F80000000000000033300000000D
:1006920000100C06100C0600000000000000000014
:1006A20040C07840C0784000043F04043F04040086
:1006B200007088FC08300000001820FF211E000096
:1006C200F008F000E018000000211C031E211E00AB
:1006D20000F00888700000001E2123241927211031
:1006E20010160E00000000000000000000000000D4
:1006F200000000E01804020000000007182040007B
:1007020000020418E000000000402018070000006A
:10071200404080F0804040000202010F01020200CE
:10072200000000F0000000000101011F01010100B2
:10073200000000000000000080B070000000000017
:1007420000000000000000000001010101010101A0
:100752000000000000000000003030000000000037
:10076200000000008060180400601806010000000C
:1007720000E010080810E000000F102020100F0009
:10078200001010F8000000000020203F2020000090
:1007920000700808088870000030282422213000E8
:1007A20000300888884830000018202020110E00F0
:1007B2000000C02010F8000000070424243F240099
:1007C20000F80888880808000019212020110E006E
:1007D20000E0108888180000000F112020110E0080
:1007E20000380808C83808000000003F0000000078
:1007F2000070880808887000001C222121221C0039
:1008020000E010080810E0000000312222110F0061
:10081200000000C0C00000000000003030000000F6
:100822000000008000000000000080600000000066
:10083200000080402010080000010204081020007F
:1008420040404040404040000404040404040400CA
:10085200000810204080000000201008040201005F
:10086200007048080808F00000000030360100005F
:10087200C030C828E810E0000718272423140B0012
:100882000000C038E0000000203C2302022738208C
:1008920008F8888888700000203F202020110E0070
:1008A200C030080808083800071820202010080067
:1008B20008F808080810E000203F202020100F0050
:1008C20008F88888E8081000203F2020232018001C
:1008D20008F88888E8081000203F20000300000084
:1008E200C03008080838000007182020221E020025
:1008F20008F808000008F808203F210101213F20E4
:10090200000808F8080800000020203F202000000E
:1009120000000808F8080800C08080807F000000FE
:1009220008F888C028180800203F20012638200037
:1009320008F8080000000000203F2020202030009E
:1009420008F8F800F8F80800203F003F003F2000B8
:1009520008F830C00008F808203F200007183F00C0
:10096200E01008080810E0000F10202020100F00EF
:1009720008F808080808F000203F210101010000E2
:10098200E01008080810E0000F18242438504F0027
:1009920008F8888888887000203F2000030C3020E7
:1009A20000708808080838000038202121221C0025
:1009B200180808F8080818000000203F200000006E
:1009C20008F808000008F808001F202020201F0057
:1009D2000878880000C83808000007380E010000B7
:1009E200F80800F80008F800033C0700073C030081
:1009F200081868808068180820302C03032C3020E7
:100A02000838C800C83808000000203F2000000055
:100A120010080808C83808002038262120201800AD
:100A2200000000FE020202000000007F4040400081
:100A3200000C30C000000000000000010638C000B9
:100A420000020202FE000000004040407F00000061
:100A52000000040202020400000000000000000086
:100A62000000000000000000808080808080808084
:100A7200000202040000000000000000000000006C
:100A820000008080808000000019242222223F2062
:100A920008F8008080000000003F112020110E00A5
:100AA2000000008080800000000E11202020110034
:100AB200000000808088F800000E112020103F20E6
:100AC2000000808080800000001F2222222213006A
:100AD200008080F0888888180020203F20200000B5
:100AE2000000808080808000006B9494949360006A
:100AF20008F8008080800000203F210000203F2075
:100B020000809898000000000020203F2020000074
:100B1200000000809898000000C08080807F000064
:100B220008F8000080808000203F24022D30200041
:100B3200000808F8000000000020203F20200000EC
:100B42008080808080808000203F20003F20003F06
:100B52008080008080800000203F210000203F2014
:100B62000000808080800000001F202020201F00C5
:100B7200808000808000000080FFA12020110E00F4
:100B82000000008080808000000E112020A0FF80E5
:100B9200808080008080800020203F212000010092
:100BA20000008080808080000033242424241900E7
:100BB200008080E0808000000000001F20200000F4
:100BC2008080000000808000001F202020103F2035
:100BD200808080000080808000010E3008060100C5
:100BE20080800080008080800F300C030C300F006A
:100BF20000808000808080000020312E0E31200095
:100C0200808080000080808080818E7018060100C4
:100C120000808080808080000021302C22213000E2
:100C220000000000807C020200000000003F404003
:100C320000000000FF00000000000000FF000000B4
:100C42000002027C800000000040403F00000000E3
:100C5200000601010202040400000000000000007E
:09196F00D2B3D2B2C2B3C2B2225B
:07197800C2B3D2B2D2B322C8
:07182C00AC0712196F7F7871
:02183300AD07FF
:10183500E4FB7E007480A803088006CEA2E713CEE1
:1018450013D8F8FFEDF582EF558224FF92B3D2B29B
:0A185500C2B20BBB08DCD2B2C2B273
:01185F002266
:10195F0012182CE4FF121833AF041218330219783F
:1018F9003EF583E5822AF582E43583F583E493FF97
:1019090012182C7F40121833AF04121833021978B9
:09188E00FFE5171475F008A4FD34
:10189700AA05EF44B0FF12195FEA54F0C4540F448D
:0C18A70010FF12195FEA540FFF02195FD6
:10193300E4F9AF01E4FD121897E4FAE4FF12190980
:081943000ABA80F709B908EAAD
:01194B002279
:0616E9008F168D17A90306
:1016EF00E5161425E012188EE4FAE9FF3395E0FEB3
:1016FF00EFC4F8540FC868FFEEC454F048FE74727C
:10170F002FF58274041218F90ABA08DEE51625E0DF
:10171F001412188EE4FAE9FF3395E0FEEFC4F85483
:10172F000FC868FFEEC454F048FE747A2FF5827428
:08173F00041218F90ABA08DED1
:01174700227F
:0A1860008F0E8D0F8B108A11891274
:10186A00E4F513AB10AA11A912851382758300122D
:10187A000C7BFB600EE50F2513FDAF0E1216E90572
:03188A001380E0E8
:01188D002238
:0817A4008F198E188D178C16A9
:1017AC00E4752101F520F51FF51E781A74FF120E51
:1017BC00A2EC4D4E4F601DAF21AE20AD1FAC1EAB49
:1017CC0019AA18A917A816120D728F218E208D1F19
:0C17DC008C1E80D6AF21AE20AD1FAC1ECD
:0117E80022DE
:041625008F0E8D0F88
:10162900E4F515E515C395145054C3E5149515FF54
:10163900E49400CF24FFCF34FFFE3395E08F1D8E55
:101649001CF51BF51A7F0A7E007D007C001217A489
:10165900A804A905AA06AB07AF13AE12AD11AC10C9
:10166900120DFDE47B0AFAF9F8120DFDEB2430FBAB
:0E167900E50F2515FDAF0E1216E9051580A52B
:011687002240
:10127A00E4F511F510F50FF50EE47FC8FEFDFCABA1
:10128A0011AA10A90FA80EC3120E8F504CE4F5151F
:10129A00F514F513F512E47FF47E01FDFCAB15AAF3
:1012AA0014A913A812C3120E8F5017E5152401F5BD
:1012BA0015E43514F514E43513F513E43512F51273
:1012CA0080D4E5112401F511E43510F510E4350F49
:1012DA00F50FE4350EF50E80A07FAE12195F7FD5AB
:1012EA0012195F7F8012195F7FA812195F7F3F1260
:1012FA00195F7FD312195FE4FF12195F7F40121939
:10130A005F7FA112195F7FC812195F7FDA12195F16
:10131A007F1212195F7F8112195F7FCF12195F7FC7
:10132A00D912195F7FF112195F7FDB12195F7F30C3
:10133A0012195F7FA412195F7FA612195F7F8D129F
:0F134A00195F7F1412195F7FAF12195F021933F9
:10000E005389F0438901758CFF758AA4C28DD2A9DC
:05001E00D2AFD28C22DC
:1018D80053877F759850538EBF538EFE53890F439D
:1018E8008920758BFD758DFDC2ABD28ED2ACD2AF7F
:0118F80022CD
:080003008F993099FDC299228A
:10194C00120C62FF600C120003740129F9E43AFADC
:03195C0080EE22F8
:1000260020204D6F6465733A00312E64726177202B
:100036004C696E6500322E4D616E75616C20416EA5
:10004600676C65002020205541525400436F6E7442
:10005600726F6C6C696E6700416E676C653A003151
:100066002E61646420343564656700322E737562D0
:1000760074726163742034356465670000000000A3
:10008600000000000000000000000000000000F872
:1000960000000000000000333000000000100C06D5
:1000A600100C0600000000000000000040C0784070
:1000B600C0784000043F04043F040400007088FC3C
:1000C60008300000001820FF211E0000F008F00094
:1000D600E018000000211C031E211E0000F0088805
:1000E600700000001E2123241927211010160E006F
:1000F600000000000000000000000000000000E01A
:10010600180402000000000718204000000204182E
:10011600E00000000040201807000000404080F08A
:10012600804040000202010F01020200000000F0C0
:10013600000000000101011F010101000000000094
:100146000000000080B07000000000000000000009
:100156000000000000010101010101010000000092
:100166000000000000303000000000000000000029
:1001760080601804006018060100000000E0100806
:100186000810E000000F102020100F00001010F8DB
:10019600000000000020203F20200000007008081A
:1001A600088870000030282422213000003008889A
:1001B600884830000018202020110E000000C020C2
:1001C60010F8000000070424243F240000F80888E3
:1001D600880808000019212020110E0000E0108870
:1001E60088180000000F112020110E0000380808A2
:1001F600C83808000000003F0000000000708808B2
:1002060008887000001C222121221C0000E0100832
:100216000810E0000000312222110F00000000C08B
:10022600C000000000000030300000000000008028
:100236000000000000008060000000000000804018
:100246002010080000010204081020004040404031
:100256004040400004040404040404000008102084
:1002660040800000002010080402010000704808C9
:100276000808F0000000003036010000C030C82831
:10028600E810E0000718272423140B000000C038EC
:10029600E0000000203C23020227382008F8888866
:1002A60088700000203F202020110E00C030080872
:1002B60008083800071820202010080008F8080849
:1002C6000810E000203F202020100F0008F8888842
:1002D600E8081000203F20202320180008F888880E
:1002E600E8081000203F200003000000C030080886
:1002F6000838000007182020221E020008F808000F
:100306000008F808203F210101213F20000808F8D5
:10031600080800000020203F2020000000000808F8
:10032600F8080800C08080807F00000008F888C0B8
:1003360028180800203F20012638200008F8080069
:1003460000000000203F20202020300008F8F800A0
:10035600F8F80800203F003F003F200008F830C0B2
:100366000008F808203F200007183F00E0100808A2
:100376000810E0000F10202020100F0008F80808D1
:100386000808F000203F210101010000E0100808E4
:100396000810E0000F18242438504F0008F8888809
:1003A60088887000203F2000030C302000708808E9
:1003B600080838000038202121221C00180808F8F7
:1003C600080818000000203F2000000008F8080078
:1003D6000008F808001F202020201F000878880049
:1003E60000C83808000007380E010000F80800F8B9
:1003F6000008F800033C0700073C03000818688063
:100406008068180820302C03032C30200838C800D8
:10041600C83808000000203F200000001008080827
:10042600C83808002038262120201800000000FEC9
:10043600020202000000007F40404000000C30C075
:1004460000000000000000010638C00000020202A1
:10045600FE000000004040407F0000000000040253
:10046600020204000000000000000000000000007E
:10047600000000008080808080808080000202046E
:100486000000000000000000000000000000808066
:10049600808000000019242222223F2008F80080D4
:1004A60080000000003F112020110E000000008097
:1004B60080800000000E1120202011000000008026
:1004C6008088F800000E112020103F200000808058
:1004D60080800000001F222222221300008080F06C
:1004E600888888180020203F202000000000808097
:1004F60080808000006B94949493600008F80080DC
:1005060080800000203F210000203F200080989836
:10051600000000000020203F202000000000008096
:100526009898000000C08080807F000008F80000D6
:1005360080808000203F24022D302000000808F82B
:10054600000000000020203F2020000080808080E6
:1005560080808000203F20003F20003F8080008078
:1005660080800000203F210000203F200000808086
:1005760080800000001F202020201F008080008037
:100586008000000080FFA12020110E0000000080E6
:1005960080808000000E112020A0FF8080808000D7
:1005A6008080800020203F21200001000000808004
:1005B600808080000033242424241900008080E0F9
:1005C600808000000000001F2020000080800000C6
:1005D60000808000001F202020103F2080808000A7
:1005E6000080808000010E300806010080800080B7
:1005F600008080800F300C030C300F0000808000DC
:10060600808080000020312E0E3120008080800006
:100616000080808080818E701806010000808080B6
:10062600808080000021302C222130000000000054
:10063600807C020200000000003F404000000000F5
:10064600FF00000000000000FF0000000002027C26
:10065600800000000040403F00000000000601014D
:0C0666000202040400000000000000007C
:1018B300022400000236005A022200000234000013
:1018C30002260000023200000A2800000000000087
:0418D3000000000011
:100ED600153815381538A838A60308A60208A6013D
:100EE60015381538A838A60608A607A838080886AB
:100EF6000308E6FA08E6F9120D0FFFA938C309E759
:100F06009F19E795F04003020FBBA838080886032F
:100F160008E6FA08E6F9120D0FA838C30896FFE5A9
:100F2600F01896FEC3EF940CEE94005003020FBB2C
:100F360074FF75F0F4120D3AA8380808860308E61F
:100F4600FA08E6F9120D0FFFAEF07C007D64120C74
:100F5600BAEF2430FF120003A8380808860308E613
:100F6600FA08E6F9120D0FFFAEF07C007D64120C54
:100F7600BA7E007F0ACFCDCFCECCCE120CBAEF24EC
:100F860030FF120003A8380808860308E6FA08E6C8
:100F9600F9120D0FFFAEF07C007D0A120CBAED249B
:100FA60030FF120003E5382405F8E6FE08E6FF12D6
:100FB6001919020F10A8380808860308E6FA08E689
:100FC600F9120D0FFFA938D309E79F19E795F050DD
:100FD60003021086A8380808860308E6FA08E6F928
:100FE600120D0FFFA838C308E69FFF18E695F0FE1E
:100FF600C3EF940CEE94005003021086E475F00CD7
:10100600120D3AA8380808860308E6FA08E6F91227
:101016000D0FFFAEF07C007D64120CBAEF2430FF9A
:10102600120003A8380808860308E6FA08E6F9124B
:101036000D0FFFAEF07C007D64120CBA7E007F0AB5
:10104600CFCDCFCECCCE120CBAEF2430FF12000398
:10105600A8380808860308E6FA08E6F9120D0FFF15
:10106600AEF07C007D0A120CBAED2430FF120003AC
:10107600E5382405F8E6FE08E6FF121919020FDA2C
:07108600E5382407F53822CC
:1017E9008E0E8F0FE50F450E603875360075375A26
:1017F9007F647E00121919C3745A950FF537E49561
:101809000EF5367F647E00121919E50F245AF53753
:10181900E4350EF5367F647E0012191975360075A8
:03182900375A2209
:1013F400E4F508F5097B01FA74282BF8E6F964454D
:101404006028AE08AF097C007D0A120CA88E088FF4
:1014140009E924D0FFE434FFFEEF2509F509EE3590
:1014240008F5080BBB00010A80CEAE08AF097C00AA
:101434007D64120CBAEF2430FF120003AE08AF092A
:101444007C007D64120CBA7E007F0ACFCDCFCECC57
:10145400CE120CBAEF2430FF120003AE08AF097CA1
:10146400007D0A120CBAED2430FF120003D3E50903
:1014740094B4E5089400500CC3E50894004005AE0C
:0714840008AF0922E4FEFF9E
:01148B00223E
:030023000215AB18
:1015AB00C0E0C0F0C083C082C0D075D000C000C006
:1015BB0001C002C003C004C005C006C00730983F7D
:1015CB00E599B4530675220075230074282523F87A
:1015DB00A6990523E52370020522E599B4451EE57E
:1015EB002564014524700D1213F48E328F3375264A
:1015FB00007527017B007A00792812194CC298D00C
:10160B0007D006D005D004D003D002D001D000D033
:0A161B00D0D082D083D0F0D0E032AE
:03000B0002168852
:10168800C0E0C0F0C0D075D000C000C004C005C024
:1016980006C007758AA4758CFF0535E53570020507
:1016A80034AE34FF7C007DC8120CBA8C348D35AE54
:1016B80036AF377C007D0C120CBAEF2405FFE43EF0
:1016C800FEC3E5359FE5349E5004D2A18002C2A135
:1016D800D007D006D005D004D000D0D0D0F0D0E0CC
:0116E80032CF
:10148C00E52545247018EF64024E7006F524752589
:10149C000222EF64014E7006F52475250122E52524
:1014AC00640145247008EF640B4E70028060E525E2
:1014BC0064024524705CEF64024E7022E53724D33D
:1014CC00FDE53634FFFCC394004047D3ED94B4ECF7
:1014DC009400503E74D32537F53774FF8025EF64A4
:1014EC00014E7024E537242DFDE43536FCD3ED9404
:1014FC00B4EC9400501CC3EC94004016742D2537AA
:10150C00F537E43536F53622EF640B4E7004F524CE
:03151C00F5252290
:10135900C2AF121933E525452470277BFF7A00793E
:10136900267D017F011218607BFF7A00792F7D01AC
:101379007F021218607BFF7A00793B7D017F03129F
:101389001860E52564014524701A7BFF7A00794AC3
:101399007D017F011218607BFF7A0079527D017F00
:1013A90002121860E52564024524703C7BFF7A002F
:1013B900795E7D017F01121860E485371385361245
:1013C900F511F5107514037D077F011216257BFFB2
:1013D9007A0079657D017F021218607BFF7A0079B6
:0B13E900717D017F03121860D2AF225B
:10174800E4F50AF50BF50CF50D12127A12000E12DB
:1017580018D8802EE5274526600CE4F526F527AF36
:1017680033AE321217E9E50B450A701B12108D8E45
:101778000C8F0D850C0A850D0BE50D450C60D512F7
:10178800148C12135980CDAF0BAE0A121192EF4E82
:0C17980070C2F50AF50BF50CF50D80B8D9
:0300000002151FC7
:0C151F00787FE4F6D8FD7581380215666F
:100C6200BB010689828A83E0225002E722BBFE0290
:090C7200E32289828A83E49322C3
:100C7B00BB010CE58229F582E5833AF583E022502E
:100C8B0006E92582F8E622BBFE06E92582F8E22278
:0D0C9B00E58229F582E5833AF583E4932292
:100CA800EF8DF0A4A8F0CF8CF0A428CE8DF0A42E60
:020CB800FE221A
:100CBA00BC000BBE0029EF8DF084FFADF022E4CC1E
:100CCA00F875F008EF2FFFEE33FEEC33FCEE9DECE7
:100CDA00984005FCEE9DFE0FD5F0E9E4CEFD22ED2D
:100CEA00F8F5F0EE8420D21CFEADF075F008EF2F77
:100CFA00FFED33FD4007985006D5F0F222C398FD68
:050D0A000FD5F0EA2204
:100D0F00BB010A89828A83E0F5F0A3E022500687AF
:100D1F00F009E71922BBFE07E3F5F009E319228971
:0B0D2F00828A83E493F5F074019322A4
:100D3A00BB010789828A83020EC0500B09C5F027BE
:100D4A00F7C5F01937F722BBFE0D09F8E325F0F3D2
:100D5A00C5F019E338F322F889828A83740193254E
:080D6A00F0C5F0F8E493382213
:100D7200E88FF0A4CC8BF0A42CFCE98EF0A42CFC20
:100D82008AF0EDA42CFCEA8EF0A4CDA8F08BF0A49E
:100D92002DCC3825F0FDE98FF0A42CCD35F0FCEBFD
:100DA2008EF0A4FEA9F0EB8FF0A4CFC5F02ECD39C2
:0F0DB200FEE43CFCEAA42DCE35F0FDE43CFC222F
:100DC10075F008758200EF2FFFEE33FECD33CDCCE9
:100DD10033CCC58233C5829BED9AEC99E58298406C
:100DE1000CF582EE9BFEED9AFDEC99FC0FD5F0D649
:100DF100E4CEFBE4CDFAE4CCF9A88222B800C1B973
:100E01000059BA002DEC8BF084CFCECDFCE5F0CBB0
:100E1100F97818EF2FFFEE33FEED33FDEC33FCEBE9
:100E210033FB10D703994004EB99FB0FD8E5E4F9A4
:100E3100FA227818EF2FFFEE33FEED33FDEC33FC91
:100E4100C933C910D7059BE99A4007EC9BFCE99A85
:100E5100F90FD8E0E4C9FAE4CCFB2275F010EF2FCA
:100E6100FFEE33FEED33FDCC33CCC833C810D707CA
:100E71009BEC9AE899400AED9BFDEC9AFCE899F805
:0E0E81000FD5F0DAE4CDFBE4CCFAE4C8F92298
:100E8F00EB9FF5F0EA9E42F0E99D42F0E89C45F0B9
:010E9F002230
:100EA0007401FF3395E0FEFDFC080808E6CF2FF63D
:100EB00018E6CE3EF618E6CD3DF618E6CC3CF62216
:10152B00021748E493A3F8E493A34003F68001F277
:10153B0008DFF48029E493A3F85407240CC8C333C1
:10154B00C4540F4420C8834004F456800146F6DF90
:10155B00E4800B01020408102040809018B3E47E55
:10156B00019360BCA3FF543F30E509541FFEE49385
:10157B00A360010ECF54C025E060A840B8E493A34C
:10158B00FAE493A3F8E493A3C8C582C8CAC583CA77
:10159B00F0A3C8C582C8CAC583CADFE9DEE780BE2F
:0118D7000010
:100EC000C5F0F8A3E028F0C5F0F8E58215827002BD
:060ED0001583E038F0225A
:00000001FF
