:10199F00D3EF9400EE94004010007D027CC7DCFE74
:0919AF00DDFCEF1F70EA1E80E769
:0119B800220C
:100ECF007590FFC2932094167F147E0012199F30E5
:100EDF0094FD7F147E0012199F7E007F0D222095B6
:100EEF00167F147E0012199F3095FD7F147E00121D
:100EFF00199F7E007F09222096167F147E001219FB
:100F0F009F3096FD7F147E0012199F7E007F052271
:100F1F002097167F147E0012199F3097FD7F147E45
:100F2F000012199F7E007F0122D293C29220941645
:100F3F007F147E0012199F3094FD7F147E001219CA
:100F4F009F7E007F0E222095167F147E0012199F20
:100F5F003095FD7F147E0012199F7E007F0A22209C
:100F6F0096167F147E0012199F3096FD7F147E0017
:100F7F0012199F7E007F06222097167F147E001283
:100F8F00199F3097FD7F147E0012199F7E007F02FC
:100F9F0022D292C2912094167F147E0012199F3094
:100FAF0094FD7F147E0012199F7E007F0F222095E3
:100FBF00167F147E0012199F3095FD7F147E00124C
:100FCF00199F7E007F0B222096167F147E00121928
:100FDF009F3096FD7F147E0012199F7E007F07229F
:100FEF002097167F147E0012199F3097FD7F147E75
:100FFF000012199F7E007F0322D291C29020941677
:10100F007F147E0012199F3094FD7F147E001219F9
:10101F009F7E007F10222095167F147E0012199F4D
:10102F003095FD7F147E0012199F7E007F0C2220C9
:10103F0096167F147E0012199F3096FD7F147E0046
:10104F0012199F7E007F08222097167F147E0012B0
:10105F00199F3097FD7F147E0012199F7E007F0429
:05106F0022E4FEFF2257
:101074007590FFC29320940C7F147E0012199F7EFA
:10108400007F0D2220950C7F147E0012199F7E0094
:101094007F092220960C7F147E0012199F7E007F08
:1010A400052220970C7F147E0012199F7E007F0179
:1010B40022D293C29220940C7F147E0012199F7E38
:1010C400007F0E2220950C7F147E0012199F7E0053
:1010D4007F0A2220960C7F147E0012199F7E007FC7
:1010E400062220970C7F147E0012199F7E007F0237
:1010F40022D292C29120940C7F147E0012199F7EFA
:10110400007F0F2220950C7F147E0012199F7E0011
:101114007F0B2220960C7F147E0012199F7E007F85
:10112400072220970C7F147E0012199F7E007F03F4
:1011340022D291C29020940C7F147E0012199F7EBB
:10114400007F102220950C7F147E0012199F7E00D0
:101154007F0C2220960C7F147E0012199F7E007F44
:10116400082220970C7F147E0012199F7E007F04B2
:0511740022E4FEFF2251
:101179007590FFEE6003021220EF14B410004003D3
:1011890002122090119A75F003A4C58325F0C58336
:10119900730211CA0211CE0211D20211D60211E054
:1011A9000211E40211E80211EC0211F60211FA022D
:1011B90011FE02120202120C021210021214021281
:1011C90018C293800AC2928006C2918002C29075A9
:1011D90017007518078040C293800AC2928006C220
:1011E900918002C290751700751806802AC29380F3
:1011F9000AC2928006C2918002C2907517007518C2
:10120900058014C293800AC2928006C2918002C2EC
:1012190090751700751804E51864044517700520C2
:1012290094028025E518640545177005209502800C
:1012390018E518640645177005209602800BE51815
:10124900640745177007209704FE7F01227F147EEB
:071259000012199FE4FEFFE3
:01126000226B
:10066B00000000000000000000000000000000007F
:10067B00000000F800000000000000333000000014
:10068B0000100C06100C060000000000000000001B
:10069B0040C07840C0784000043F04043F0404008D
:1006AB00007088FC08300000001820FF211E00009D
:1006BB00F008F000E018000000211C031E211E00B2
:1006CB0000F00888700000001E2123241927211038
:1006DB0010160E00000000000000000000000000DB
:1006EB00000000E018040200000000071820400082
:1006FB0000020418E0000000004020180700000072
:10070B00404080F0804040000202010F01020200D5
:10071B00000000F0000000000101011F01010100B9
:10072B00000000000000000080B07000000000001E
:10073B0000000000000000000001010101010101A7
:10074B00000000000000000000303000000000003E
:10075B000000000080601804006018060100000013
:10076B0000E010080810E000000F102020100F0010
:10077B00001010F8000000000020203F2020000097
:10078B0000700808088870000030282422213000EF
:10079B0000300888884830000018202020110E00F7
:1007AB000000C02010F8000000070424243F2400A0
:1007BB0000F80888880808000019212020110E0075
:1007CB0000E0108888180000000F112020110E0087
:1007DB0000380808C83808000000003F000000007F
:1007EB000070880808887000001C222121221C0040
:1007FB0000E010080810E0000000312222110F0069
:10080B00000000C0C00000000000003030000000FD
:10081B00000000800000000000008060000000006D
:10082B000000804020100800000102040810200086
:10083B0040404040404040000404040404040400D1
:10084B000008102040800000002010080402010066
:10085B00007048080808F000000000303601000066
:10086B00C030C828E810E0000718272423140B0019
:10087B000000C038E0000000203C23020227382093
:10088B0008F8888888700000203F202020110E0077
:10089B00C03008080808380007182020201008006E
:1008AB0008F808080810E000203F202020100F0057
:1008BB0008F88888E8081000203F20202320180023
:1008CB0008F88888E8081000203F2000030000008B
:1008DB00C03008080838000007182020221E02002C
:1008EB0008F808000008F808203F210101213F20EB
:1008FB00000808F8080800000020203F2020000016
:10090B0000000808F8080800C08080807F00000005
:10091B0008F888C028180800203F2001263820003E
:10092B0008F8080000000000203F202020203000A5
:10093B0008F8F800F8F80800203F003F003F2000BF
:10094B0008F830C00008F808203F200007183F00C7
:10095B00E01008080810E0000F10202020100F00F6
:10096B0008F808080808F000203F210101010000E9
:10097B00E01008080810E0000F18242438504F002E
:10098B0008F8888888887000203F2000030C3020EE
:10099B0000708808080838000038202121221C002C
:1009AB00180808F8080818000000203F2000000075
:1009BB0008F808000008F808001F202020201F005E
:1009CB000878880000C83808000007380E010000BE
:1009DB00F80800F80008F800033C0700073C030088
:1009EB00081868808068180820302C03032C3020EE
:1009FB000838C800C83808000000203F200000005D
:100A0B0010080808C83808002038262120201800B4
:100A1B00000000FE020202000000007F4040400088
:100A2B00000C30C000000000000000010638C000C0
:100A3B0000020202FE000000004040407F00000068
:100A4B00000004020202040000000000000000008D
:100A5B00000000000000000080808080808080808B
:100A6B000002020400000000000000000000000073
:100A7B0000008080808000000019242222223F2069
:100A8B0008F8008080000000003F112020110E00AC
:100A9B000000008080800000000E1120202011003B
:100AAB00000000808088F800000E112020103F20ED
:100ABB000000808080800000001F22222222130071
:100ACB00008080F0888888180020203F20200000BC
:100ADB000000808080808000006B94949493600071
:100AEB0008F8008080800000203F210000203F207C
:100AFB0000809898000000000020203F202000007C
:100B0B00000000809898000000C08080807F00006B
:100B1B0008F8000080808000203F24022D30200048
:100B2B00000808F8000000000020203F20200000F3
:100B3B008080808080808000203F20003F20003F0D
:100B4B008080008080800000203F210000203F201B
:100B5B000000808080800000001F202020201F00CC
:100B6B00808000808000000080FFA12020110E00FB
:100B7B000000008080808000000E112020A0FF80EC
:100B8B00808080008080800020203F212000010099
:100B9B0000008080808080000033242424241900EE
:100BAB00008080E0808000000000001F20200000FB
:100BBB008080000000808000001F202020103F203C
:100BCB00808080000080808000010E3008060100CC
:100BDB0080800080008080800F300C030C300F0071
:100BEB0000808000808080000020312E0E3120009C
:100BFB00808080000080808080818E7018060100CC
:100C0B0000808080808080000021302C22213000E9
:100C1B0000000000807C020200000000003F40400A
:100C2B0000000000FF00000000000000FF000000BB
:100C3B000002027C800000000040403F00000000EA
:100C4B000006010102020404000000000000000085
:0919F500D2B3D2B2C2B3C2B222D5
:0719FE00C2B3D2B2D2B32242
:0718B600AC071219F57F7861
:0218BD00AD0775
:1018BF00E4FB7E007480A803088006CEA2E713CE57
:1018CF0013D8F8FFEDF582EF558224FF92B3D2B211
:0A18DF00C2B20BBB08DCD2B2C2B2E9
:0118E90022DC
:1019E5001218B6E4FF1218BDAF041218BD0219FE95
:10197F003EF583E5822AF582E43583F583E493FF10
:10198F001218B67F401218BDAF041218BD0219FE0F
:09191800FFE5201475F008A4FDA0
:10192100AA05EF44B0FF1219E5EA54F0C4540F447C
:0C19310010FF1219E5EA540FFF0219E53F
:1019B900E4F9AF01E4FD121921E4FAE4FF12198FE9
:0819C9000ABA80F709B908EA27
:0119D10022F3
:061735008F1F8D20A903A7
:10173B00E51F1425E0121918E4FAE9FF3395E0FED2
:10174B00EFC4F8540FC868FFEEC454F048FE746B36
:10175B002FF582740412197F0ABA08DEE51F25E003
:10176B0014121918E4FAE9FF3395E0FEEFC4F854AC
:10177B000FC868FFEEC454F048FE74732FF58274E3
:08178B000412197F0ABA08DEFE
:011793002233
:0A18EA008F178D188B198A1A891BBD
:1018F400E4F51CAB19AA1AA91B851C827583001276
:101904000C74FB600EE518251CFDAF171217350586
:031914001C80E054
:0119170022AD
:081831008F228E218D208C1FF7
:10183900E4752A01F529F528F527782374FF120E96
:101849009BEC4D4E4F601DAF2AAE29AD28AC27AB9E
:1018590022AA21A920A81F120D6B8F2A8E298D2853
:0C1869008C2780D6AF2AAE29AD28AC2712
:011875002250
:04166F008F178D182C
:10167300E4F51EE51EC3951D5054C3E51D951EFFDD
:10168300E49400CF24FFCF34FFFE3395E08F268E02
:1016930025F524F5237F0A7E007D007C0012183196
:1016A300A804A905AA06AB07AF1CAE1BAD1AAC195B
:1016B300120DF6E47B0AFAF9F8120DF6EB2430FB6F
:0E16C300E518251EFDAF17121735051E80A570
:0116D10022F6
:0416D2008F3F8B417A
:1016D600E4F546F547E5425407700BE5421313134C
:1016E600541FF549800AE542131313541F04F549A4
:1016F6008D49E549C395425035AD3FAF4912192191
:10170600853F48E548C395415020AB43AA44A945C7
:101716000547E547AE467002054614F5828E8312EC
:0E1726000C74FF12198F054880D9054980C444
:011734002292
:10126100E4F51AF519F518F517E47FC8FEFDFCAB96
:101271001AAA19A918A817C3120E88504CE4F51E12
:10128100F51DF51CF51BE47FF47E01FDFCAB1EAAE8
:101291001DA91CA81BC3120E885017E51E2401F5B9
:1012A1001EE4351DF51DE4351CF51CE4351BF51B4D
:1012B10080D4E51A2401F51AE43519F519E4351835
:1012C100F518E43517F51780A07FAE1219E57FD523
:1012D1001219E57F801219E57FA81219E57F3F12E7
:1012E10019E57FD31219E5E4FF1219E57F401219C0
:1012F100E57FA11219E57FC81219E57FDA1219E518
:101301007F121219E57F811219E57FCF1219E57F4E
:10131100D91219E57FF11219E57FDB1219E57F304A
:101321001219E57FA41219E57FA61219E57F8D1226
:0F13310019E57F141219E57FAF1219E50219B9FA
:10000E005389F0438901758CFF758AA4C28DD2A9DC
:05001E00D2AFD28C22DC
:10193D0053877F759850538EBF538EFE53890F4337
:10194D008920758BFD758DFDC2ABD28ED2ACD2AF19
:01195D002267
:080003008F993099FDC299228A
:1019D200120C5BFF600C120003740129F9E43AFA5D
:0319E20080EE2272
:100026004D6F6465733A00312E64726177204C69B6
:100036006E6500322E4D616E75616C20416E676C87
:1000460065005541525400436F6E74726F6C6C6953
:100056006E6700416E676C653A00312E61646420FC
:100066003435C2B000322E737562747261637420C7
:100076003435C2B00000000000000000000000009F
:100086000000000000000000F80000000000000072
:10009600333000000000100C06100C0600000000B3
:1000A600000000000040C07840C0784000043F04D3
:1000B600043F040400007088FC083000000018208B
:1000C600FF211E0000F008F000E018000000211CCF
:1000D600031E211E0000F00888700000001E212368
:1000E600241927211010160E000000000000000041
:1000F6000000000000000000E018040200000000FC
:10010600071820400000020418E00000000040200C
:100116001807000000404080F080404000020201C5
:100126000F01020200000000F000000000010101C2
:100136001F01010100000000000000000080B070F7
:1001460000000000000000000000000000000101A7
:100156000101010101000000000000000000303034
:100166000000000000000000008060180400601815
:10017600060100000000E010080810E000000F1063
:100186002020100F00001010F800000000002020B2
:100196003F20200000007008080888700000302802
:1001A60024222130000030088888483000001820BA
:1001B6002020110E000000C02010F80000000704E7
:1001C60024243F240000F808888808080000192124
:1001D6002020110E0000E0108888180000000F1182
:1001E6002020110E0000380808C83808000000005A
:1001F6003F000000000070880808887000001C227C
:100206002121221C0000E010080810E00000003147
:100216002222110F00000000C0C0000000000000F4
:100226003030000000000000800000000000008068
:10023600600000000000008040201008000001025D
:1002460004081020004040404040404000040404A0
:100256000404040400000810204080000000201060
:100266000804020100007048080808F000000000B9
:100276003036010000C030C828E810E00007182713
:100286002423140B000000C038E0000000203C23AB
:10029600020227382008F8888888700000203F204E
:1002A6002020110E00C03008080808380007182062
:1002B600202010080008F808080810E000203F2059
:1002C6002020100F0008F88888E8081000203F203A
:1002D600202320180008F88888E8081000203F200E
:1002E6000003000000C03008080838000007182086
:1002F60020221E020008F808000008F808203F2106
:100306000101213F20000808F8080800000020200D
:100316003F2020000000000808F8080800C0808080
:10032600807F00000008F888C028180800203F20B9
:10033600012638200008F8080000000000203F20B1
:10034600202020300008F8F800F8F80800203F00C8
:100356003F003F200008F830C00008F808203F2082
:100366000007183F00E01008080810E0000F1020F2
:100376002020100F0008F808080808F000203F2188
:100386000101010000E01008080810E0000F182421
:100396002438504F0008F8888888887000203F204D
:1003A60000030C3020007088080808380000382048
:1003B6002121221C00180808F8080818000000204F
:1003C6003F2000000008F808000008F808001F2079
:1003D6002020201F000878880000C8380800000781
:1003E600380E010000F80800F80008F800033C0782
:1003F60000073C0300081868808068180820302C25
:1004060003032C30200838C800C838080000002034
:100416003F2000000010080808C8380800203826C9
:100426002120201800000000FE0202020000000049
:100436007F40404000000C30C0000000000000007B
:10044600010638C00000020202FE00000000404023
:10045600407F0000000000040202020400000000C9
:100466000000000000000000000000000080808006
:1004760080808080800002020400000000000000EE
:100486000000000000000080808080000000192429
:100496002222223F2008F8008080000000003F1141
:1004A6002020110E000000008080800000000E1148
:1004B6002020201100000000808088F800000E1126
:1004C6002020103F200000808080800000001F2236
:1004D6002222221300008080F088888818002020BD
:1004E6003F202000000000808080808000006B9408
:1004F600949493600008F8008080800000203F21DB
:100506000000203F20008098980000000000202076
:100516003F20200000000000809898000000C08066
:1005260080807F000008F8000080808000203F2443
:10053600022D302000000808F800000000002020EE
:100546003F202000008080808080808000203F2027
:10055600003F20003F8080008080800000203F21F7
:100566000000203F200000808080800000001F20C7
:100576002020201F00808000808000000080FFA1D6
:100586002020110E000000008080808000000E11E7
:100596002020A0FF80808080008080800020203F77
:1005A600212000010000008080808080000033242C
:1005B6002424241900008080E080800000000000D0
:1005C6001F202000008080000000808000001F2087
:1005D6002020103F20808080000080808000010E57
:1005E600300806010080800080008080800F300C7B
:1005F600030C300F000080800080808000002031D6
:100606002E0E312000808080000080808080818EC8
:1006160070180601000080808080808000002130F4
:100626002C2221300000000000807C020200000025
:1006360000003F404000000000FF000000000000F6
:1006460000FF0000000002027C8000000000404025
:100656003F00000000000601010202040400000041
:0506660000000000008F
:10195E00022D00000239005A023B005A022B0000F1
:10196E00023D00000A2F00000000000000000000F1
:1013D7007B007A007939750F017510F47F5A7E000A
:1013E7008E0A8F0B8B0C8A0D890E120D08FFC3E531
:1013F7000B9FE50A95F0502CAB0CAA0DA90E120D08
:1014070008C3950BFFE5F0950AFEC3EF940CEE9425
:1014170000401174FF75F0F4120D33AF10AE0F12C8
:10142700199F80D4AB0CAA0DA90E120D08FFD3E5A6
:101437000B9FE50A95F0402DAB0CAA0DA90E120DD6
:1014470008FFC3E50B9FFFE50A95F0FEC3EF940C79
:10145700EE94004010E475F00C120D33AF10AE0F90
:0614670012199F80D32240
:1017E3008E088F09E509450860431213D7E508C33E
:1017F30013FEE50913FFC3745A9FFFE49EFE7B00AB
:101803007A007939750F017510F41213E7E508C3EF
:1018130013FEE50913245AFFE43EFE7B007A0079A8
:0E18230039750F017510F41213E71213D72256
:10187600E4FFFE7B02FA742F2BF8E6F96445601C40
:101886007C007D0A120CA1E924D0FDEC34FFFCEDAE
:101896002FFFEC3EFE0BBB00010A80DAD3EF94B4B7
:0F18A600EE94005007C3EE9400400122E4FEFFD1
:0118B5002210
:030023000215F7CC
:1015F700C0E0C0F0C083C082C0D075D000C000C0BA
:1016070001C002C003C004C005C006C00730983D32
:10161700E599B45306752B00752C00742F252CF80B
:10162700A699052CE52C7002052BE599B44517E51D
:101637002E6401452D70061218761217E37B007A87
:1016470000792F1219D2AF99120003C298D007D090
:1016570006D005D004D003D002D001D000D0D0D01E
:0816670082D083D0F0D0E03204
:03000B000214F9E3
:1014F900C0E0C0F0C0D075D000C000C004C005C0B5
:1015090006C007758AA4758CFF053EE53E70020585
:101519003DAE3DFF7C007DC8120CB38C3D8D3EAEC7
:1015290039AF3A7C007D0C120CB3EF2405FFE43E81
:10153900FEC3E53E9FE53D9E5004D2A28002C2A2B1
:10154900AE3BAF3C7C007D0C120CB3EF2405FFE4ED
:101559003EFEC3E53E9FE53D9E5004D2A18002C2F6
:10156900A1D007D006D005D004D000D0D0D0F0D07B
:02157900E0325E
:10157B00E52E452D7018EF64024E7006F52D752E75
:10158B000222EF64014E7006F52D752E0122E52E19
:10159B006401452D7008EF640B4E70028049E52EF7
:1015AB006402452D7045EF64024E7017E53A24D363
:1015BB00E53934FFC39400403274D3253AF53A74BD
:1015CB00FF8019EF64014E7018E53A242DE435398C
:1015DB00C394004016742D253AF53AE43539F539A4
:0C15EB0022EF640B4E7004F52DF52E224B
:101340001219B9E52E452D70277BFF7A0079267D8D
:10135000017F011218EA7BFF7A00792D7D017F025F
:101360001218EA7BFF7A0079397D017F031218EAAF
:10137000E52E6401452D701A7BFF7A0079487D01C6
:101380007F011218EA7BFF7A00794D7D017F0212FE
:1013900018EAE52E6402452D703C7BFF7A007959EE
:1013A0007D017F011218EAE4853A1C85391BF51A84
:1013B000F519751D037D077F0112166F7BFF7A00FB
:1013C00079607D017F021218EA7BFF7A00796B7DDC
:0713D000017F031218EA225D
:10179400E4F511F512F513F514F515751601121289
:1017A4006112000E12193D801CE5124511701B12C6
:1017B40010748E138F14851311851412E5144513B8
:1017C40060E712157B12134080DFAF12AE111211C5
:0F17D40079EF4E70D4F511F512F513F51480CAA4
:0300000002146D7A
:0C146D00787FE4F6D8FD7581490214B4C4
:100C5B00BB010689828A83E0225002E722BBFE0297
:090C6B00E32289828A83E49322CA
:100C7400BB010CE58229F582E5833AF583E0225035
:100C840006E92582F8E622BBFE06E92582F8E2227F
:0D0C9400E58229F582E5833AF583E4932299
:100CA100EF8DF0A4A8F0CF8CF0A428CE8DF0A42E67
:020CB100FE2221
:100CB300BC000BBE0029EF8DF084FFADF022E4CC25
:100CC300F875F008EF2FFFEE33FEEC33FCEE9DECEE
:100CD300984005FCEE9DFE0FD5F0E9E4CEFD22ED34
:100CE300F8F5F0EE8420D21CFEADF075F008EF2F7E
:100CF300FFED33FD4007985006D5F0F222C398FD6F
:050D03000FD5F0EA220B
:100D0800BB010A89828A83E0F5F0A3E022500687B6
:100D1800F009E71922BBFE07E3F5F009E319228978
:0B0D2800828A83E493F5F074019322AB
:100D3300BB010789828A83020EB9500B09C5F027CC
:100D4300F7C5F01937F722BBFE0D09F8E325F0F3D9
:100D5300C5F019E338F322F889828A837401932555
:080D6300F0C5F0F8E49338221A
:100D6B00E88FF0A4CC8BF0A42CFCE98EF0A42CFC27
:100D7B008AF0EDA42CFCEA8EF0A4CDA8F08BF0A4A5
:100D8B002DCC3825F0FDE98FF0A42CCD35F0FCEB04
:100D9B008EF0A4FEA9F0EB8FF0A4CFC5F02ECD39C9
:0F0DAB00FEE43CFCEAA42DCE35F0FDE43CFC2236
:100DBA0075F008758200EF2FFFEE33FECD33CDCCF0
:100DCA0033CCC58233C5829BED9AEC99E582984073
:100DDA000CF582EE9BFEED9AFDEC99FC0FD5F0D650
:100DEA00E4CEFBE4CDFAE4CCF9A88222B800C1B97A
:100DFA000059BA002DEC8BF084CFCECDFCE5F0CBB8
:100E0A00F97818EF2FFFEE33FEED33FDEC33FCEBF0
:100E1A0033FB10D703994004EB99FB0FD8E5E4F9AB
:100E2A00FA227818EF2FFFEE33FEED33FDEC33FC98
:100E3A00C933C910D7059BE99A4007EC9BFCE99A8C
:100E4A00F90FD8E0E4C9FAE4CCFB2275F010EF2FD1
:100E5A00FFEE33FEED33FDCC33CCC833C810D707D1
:100E6A009BEC9AE899400AED9BFDEC9AFCE899F80C
:0E0E7A000FD5F0DAE4CDFBE4CCFAE4C8F9229F
:100E8800EB9FF5F0EA9E42F0E99D42F0E89C45F0C0
:010E98002237
:100E99007401FF3395E0FEFDFC080808E6CF2FF644
:100EA90018E6CE3EF618E6CD3DF618E6CC3CF6221D
:10147900021794E493A3F8E493A34003F68001F2DE
:1014890008DFF48029E493A3F85407240CC8C33374
:10149900C4540F4420C8834004F456800146F6DF43
:1014A900E4800B010204081020408090195EE47E5C
:1014B900019360BCA3FF543F30E509541FFEE49338
:1014C900A360010ECF54C025E060A840B8E493A3FF
:1014D900FAE493A3F8E493A3C8C582C8CAC583CA2A
:1014E900F0A3C8C582C8CAC583CADFE9DEE780BEE2
:01197E000068
:100EB900C5F0F8A3E028F0C5F0F8E58215827002C4
:060EC9001583E038F02261
:00000001FF
