:10197600D3EF9400EE94004010007D027CC7DCFE9D
:09198600DDFCEF1F70EA1E80E792
:01198F002235
:100ED0007590FFC2932094167F147E00121976300D
:100EE00094FD7F147E001219767E007F0D222095DE
:100EF000167F147E001219763095FD7F147E001245
:100F000019767E007F09222096167F147E00121922
:100F1000763096FD7F147E001219767E007F0522C2
:100F20002097167F147E001219763097FD7F147E6D
:100F3000001219767E007F0122D293C2922094166D
:100F40007F147E001219763094FD7F147E001219F2
:100F5000767E007F0E222095167F147E0012197671
:100F60003095FD7F147E001219767E007F0A2220C4
:100F700096167F147E001219763096FD7F147E003F
:100F80001219767E007F06222097167F147E0012AB
:100F900019763097FD7F147E001219767E007F024D
:100FA00022D292C2912094167F147E0012197630BC
:100FB00094FD7F147E001219767E007F0F2220950B
:100FC000167F147E001219763095FD7F147E001274
:100FD00019767E007F0B222096167F147E00121950
:100FE000763096FD7F147E001219767E007F0722F0
:100FF0002097167F147E001219763097FD7F147E9D
:10100000001219767E007F0322D291C2902094169E
:101010007F147E001219763094FD7F147E00121921
:10102000767E007F10222095167F147E001219769E
:101030003095FD7F147E001219767E007F0C2220F1
:1010400096167F147E001219763096FD7F147E006E
:101050001219767E007F08222097167F147E0012D8
:1010600019763097FD7F147E001219767E007F047A
:0510700022E4FEFF2256
:101075007590FFC29320940C7F147E001219767E22
:10108500007F0D2220950C7F147E001219767E00BC
:101095007F092220960C7F147E001219767E007F30
:1010A500052220970C7F147E001219767E007F01A1
:1010B50022D293C29220940C7F147E001219767E60
:1010C500007F0E2220950C7F147E001219767E007B
:1010D5007F0A2220960C7F147E001219767E007FEF
:1010E500062220970C7F147E001219767E007F025F
:1010F50022D292C29120940C7F147E001219767E22
:10110500007F0F2220950C7F147E001219767E0039
:101115007F0B2220960C7F147E001219767E007FAD
:10112500072220970C7F147E001219767E007F031C
:1011350022D291C29020940C7F147E001219767EE3
:10114500007F102220950C7F147E001219767E00F8
:101155007F0C2220960C7F147E001219767E007F6C
:10116500082220970C7F147E001219767E007F04DA
:0511750022E4FEFF2250
:10117A007590FFEE6003021221EF14B410004003D1
:10118A0002122190119B75F003A4C58325F0C58333
:10119A00730211CB0211CF0211D30211D70211E14E
:1011AA000211E50211E90211ED0211F70211FB0227
:1011BA0011FF02120302120D02121102121502127B
:1011CA0019C293800AC2928006C2918002C29075A7
:1011DA001900751A078040C293800AC2928006C21B
:1011EA00918002C290751900751A06802AC29380EE
:1011FA000AC2928006C2918002C290751900751ABD
:10120A00058014C293800AC2928006C2918002C2EB
:10121A0090751900751A04E51A64044519700520B9
:10122A0094028025E51A6405451970052095028007
:10123A0018E51A640645197005209602800BE51A0E
:10124A00640745197007209704FE7F01227F147EE8
:07125A0000121976E4FEFF0B
:01126100226A
:10066C00000000000000000000000000000000007E
:10067C00000000F800000000000000333000000013
:10068C0000100C06100C060000000000000000001A
:10069C0040C07840C0784000043F04043F0404008C
:1006AC00007088FC08300000001820FF211E00009C
:1006BC00F008F000E018000000211C031E211E00B1
:1006CC0000F00888700000001E2123241927211037
:1006DC0010160E00000000000000000000000000DA
:1006EC00000000E018040200000000071820400081
:1006FC0000020418E0000000004020180700000071
:10070C00404080F0804040000202010F01020200D4
:10071C00000000F0000000000101011F01010100B8
:10072C00000000000000000080B07000000000001D
:10073C0000000000000000000001010101010101A6
:10074C00000000000000000000303000000000003D
:10075C000000000080601804006018060100000012
:10076C0000E010080810E000000F102020100F000F
:10077C00001010F8000000000020203F2020000096
:10078C0000700808088870000030282422213000EE
:10079C0000300888884830000018202020110E00F6
:1007AC000000C02010F8000000070424243F24009F
:1007BC0000F80888880808000019212020110E0074
:1007CC0000E0108888180000000F112020110E0086
:1007DC0000380808C83808000000003F000000007E
:1007EC000070880808887000001C222121221C003F
:1007FC0000E010080810E0000000312222110F0068
:10080C00000000C0C00000000000003030000000FC
:10081C00000000800000000000008060000000006C
:10082C000000804020100800000102040810200085
:10083C0040404040404040000404040404040400D0
:10084C000008102040800000002010080402010065
:10085C00007048080808F000000000303601000065
:10086C00C030C828E810E0000718272423140B0018
:10087C000000C038E0000000203C23020227382092
:10088C0008F8888888700000203F202020110E0076
:10089C00C03008080808380007182020201008006D
:1008AC0008F808080810E000203F202020100F0056
:1008BC0008F88888E8081000203F20202320180022
:1008CC0008F88888E8081000203F2000030000008A
:1008DC00C03008080838000007182020221E02002B
:1008EC0008F808000008F808203F210101213F20EA
:1008FC00000808F8080800000020203F2020000015
:10090C0000000808F8080800C08080807F00000004
:10091C0008F888C028180800203F2001263820003D
:10092C0008F8080000000000203F202020203000A4
:10093C0008F8F800F8F80800203F003F003F2000BE
:10094C0008F830C00008F808203F200007183F00C6
:10095C00E01008080810E0000F10202020100F00F5
:10096C0008F808080808F000203F210101010000E8
:10097C00E01008080810E0000F18242438504F002D
:10098C0008F8888888887000203F2000030C3020ED
:10099C0000708808080838000038202121221C002B
:1009AC00180808F8080818000000203F2000000074
:1009BC0008F808000008F808001F202020201F005D
:1009CC000878880000C83808000007380E010000BD
:1009DC00F80800F80008F800033C0700073C030087
:1009EC00081868808068180820302C03032C3020ED
:1009FC000838C800C83808000000203F200000005C
:100A0C0010080808C83808002038262120201800B3
:100A1C00000000FE020202000000007F4040400087
:100A2C00000C30C000000000000000010638C000BF
:100A3C0000020202FE000000004040407F00000067
:100A4C00000004020202040000000000000000008C
:100A5C00000000000000000080808080808080808A
:100A6C000002020400000000000000000000000072
:100A7C0000008080808000000019242222223F2068
:100A8C0008F8008080000000003F112020110E00AB
:100A9C000000008080800000000E1120202011003A
:100AAC00000000808088F800000E112020103F20EC
:100ABC000000808080800000001F22222222130070
:100ACC00008080F0888888180020203F20200000BB
:100ADC000000808080808000006B94949493600070
:100AEC0008F8008080800000203F210000203F207B
:100AFC0000809898000000000020203F202000007B
:100B0C00000000809898000000C08080807F00006A
:100B1C0008F8000080808000203F24022D30200047
:100B2C00000808F8000000000020203F20200000F2
:100B3C008080808080808000203F20003F20003F0C
:100B4C008080008080800000203F210000203F201A
:100B5C000000808080800000001F202020201F00CB
:100B6C00808000808000000080FFA12020110E00FA
:100B7C000000008080808000000E112020A0FF80EB
:100B8C00808080008080800020203F212000010098
:100B9C0000008080808080000033242424241900ED
:100BAC00008080E0808000000000001F20200000FA
:100BBC008080000000808000001F202020103F203B
:100BCC00808080000080808000010E3008060100CB
:100BDC0080800080008080800F300C030C300F0070
:100BEC0000808000808080000020312E0E3120009B
:100BFC00808080000080808080818E7018060100CB
:100C0C0000808080808080000021302C22213000E8
:100C1C0000000000807C020200000000003F404009
:100C2C0000000000FF00000000000000FF000000BA
:100C3C000002027C800000000040403F00000000E9
:100C4C000006010102020404000000000000000084
:0919CC00D2B3D2B2C2B3C2B222FE
:0719D500C2B3D2B2D2B3226B
:07188D00AC071219CC7F78B3
:02189400AD079E
:10189600E4FB7E007480A803088006CEA2E713CE80
:1018A60013D8F8FFEDF582EF558224FF92B3D2B23A
:0A18B600C2B20BBB08DCD2B2C2B212
:0118C0002205
:1019BC0012188DE4FF121894AF041218940219D562
:101956003EF583E5822AF582E43583F583E493FF39
:1019660012188D7F40121894AF041218940219D5DC
:0918EF00FFE5221475F008A4FDC8
:1018F800AA05EF44B0FF1219BCEA54F0C4540F44CF
:0C19080010FF1219BCEA540FFF0219BCBA
:10199000E4F9AF01E4FD1218F8E4FAE4FF12196665
:0819A0000ABA80F709B908EA50
:0119A800221C
:061797008F218D22A90341
:10179D00E5211425E01218EFE4FAE9FF3395E0FE98
:1017AD00EFC4F8540FC868FFEEC454F048FE746CD3
:1017BD002FF58274041219560ABA08DEE52125E0C8
:1017CD00141218EFE4FAE9FF3395E0FEEFC4F85474
:1017DD000FC868FFEEC454F048FE74742FF5827480
:0817ED00041219560ABA08DEC5
:0117F50022D1
:0A18C1008F1B8D1C8B1D8A1E891FD2
:1018CB00E4F520AB1DAA1EA91F852082758300128B
:1018DB000C75FB600EE51C2520FDAF1B1217970541
:0318EB002080E07A
:0118EE0022D7
:081848008F3A8E398D388C3780
:10185000E4754201F541F540F53F783B74FF120E07
:101860009CEC4D4E4F601DAF42AE41AD40AC3FAB26
:101870003AAA39A938A837120D6C8F428E418D4093
:0C1880008C3F80D6AF42AE41AD40AC3F83
:01188C002239
:0416D1008F4E8D4F5C
:1016D500E4F555E555C395545054C3E5549555FF68
:1016E500E49400CF24FFCF34FFFE3395E08F3E8E88
:1016F5003DF53CF53B7F0A7E007D007C00121848D5
:10170500A804A905AA06AB07AF53AE52AD51AC501C
:10171500120DF7E47B0AFAF9F8120DF7EB2430FB0A
:0E172500E54F2555FDAF4E121797055580A5CF
:011733002293
:041734008F438B450F
:10173800E4F54AF54BE5465407700BE546131313D9
:10174800541FF54D800AE546131313541F04F54D35
:101758008D4DE54DC395465035AD43AF4D1218F844
:1017680085434CE54CC395455020AB47AA48A94949
:10177800054BE54BAE4A7002054A14F5828E83127A
:0E1788000C75FF121966054C80D9054D80C402
:011796002230
:10126200E4F51CF51BF51AF519E47FC8FEFDFCAB8D
:101272001CAA1BA91AA819C3120E89504CE4F52006
:10128200F51FF51EF51DE47FF47E01FDFCAB20AADF
:101292001FA91EA81DC3120E895017E5202401F5AF
:1012A20020E4351FF51FE4351EF51EE4351DF51D3E
:1012B20080D4E51C2401F51CE4351BF51BE4351A2A
:1012C200F51AE43519F51980A07FAE1219BC7FD545
:1012D2001219BC7F801219BC7FA81219BC7F3F1261
:1012E20019BC7FD31219BCE4FF1219BC7F4012193A
:1012F200BC7FA11219BC7FC81219BC7FDA1219BCBB
:101302007F121219BC7F811219BC7FCF1219BC7FC8
:10131200D91219BC7FF11219BC7FDB1219BC7F30C4
:101322001219BC7FA41219BC7FA61219BC7F8D12A0
:0F13320019BC7F141219BC7FAF1219BC0219909D
:10000E005389F0438901758CFF758AA4C28DD2A9DC
:05001E00D2AFD28C22DC
:1019140053877F759850538EBF538EFE53890F4360
:101924008920758BFD758DFDC2ABD28ED2ACD2AF42
:011934002290
:080003008F993099FDC299228A
:1019A900120C5CFF600C120003740129F9E43AFA85
:0319B90080EE229B
:1000260043686F6F7365204D6F646500312E5541CF
:100036005254206D6F646500322E4155544F206D29
:100046006F646500312E64726177205472690032E4
:100056002E6472617720547269002F77206C656E6A
:10006600677468005541525420636F6E74726F6CEA
:10007600006D6F64650000000000000000000000D5
:10008600000000000000000000F800000000000072
:1000960000333000000000100C06100C06000000B3
:1000A60000000000000040C07840C0784000043FD7
:1000B60004043F040400007088FC083000000018A7
:1000C60020FF211E0000F008F000E01800000021CB
:1000D6001C031E211E0000F00888700000001E216F
:1000E60023241927211010160E000000000000001E
:1000F600000000000000000000E0180402000000FC
:1001060000071820400000020418E000000000402C
:10011600201807000000404080F0804040000202A6
:10012600010F01020200000000F0000000000101C2
:10013600011F01010100000000000000000080B066
:100146007000000000000000000000000000000138
:100156000101010101010000000000000000003063
:1001660030000000000000000000806018040060FD
:1001760018060100000000E010080810E000000F5B
:10018600102020100F00001010F8000000000020C2
:10019600203F20200000007008080888700000300A
:1001A60028242221300000300888884830000018B2
:1001B600202020110E000000C02010F800000007CB
:1001C6000424243F240000F8088888080800001941
:1001D600212020110E0000E0108888180000000F72
:1001E600112020110E0000380808C8380800000049
:1001F600003F000000000070880808887000001C9E
:10020600222121221C0000E010080810E000000056
:10021600312222110F00000000C0C00000000000C3
:1002260000303000000000000080000000000000E8
:1002360080600000000000008040201008000001DF
:1002460002040810200040404040404040000404A2
:10025600040404040400000810204080000000206C
:10026600100804020100007048080808F0000000A9
:10027600003036010000C030C828E810E00007183A
:10028600272423140B000000C038E0000000203CA7
:1002960023020227382008F8888888700000203F4B
:1002A600202020110E00C030080808083800071862
:1002B60020202010080008F808080810E000203F59
:1002C600202020100F0008F88888E8081000203F3A
:1002D60020202320180008F88888E8081000203F0E
:1002E600200003000000C030080808380000071886
:1002F6002020221E020008F808000008F808203F07
:10030600210101213F20000808F80808000000200C
:10031600203F2020000000000808F8080800C080E0
:1003260080807F00000008F888C028180800203F59
:1003360020012638200008F8080000000000203FB1
:1003460020202020300008F8F800F8F80800203FA8
:10035600003F003F200008F830C00008F808203FA2
:10036600200007183F00E01008080810E0000F10F2
:10037600202020100F0008F808080808F000203F89
:10038600210101010000E01008080810E0000F1824
:10039600242438504F0008F8888888887000203F49
:1003A6002000030C30200070880808083800003848
:1003B600202121221C00180808F80808180000004F
:1003C600203F2000000008F808000008F808001F79
:1003D600202020201F000878880000C83808000068
:1003E60007380E010000F80800F80008F800033C82
:1003F6000700073C0300081868808068180820304A
:100406002C03032C30200838C800C8380800000028
:10041600203F2000000010080808C83808002038CF
:10042600262120201800000000FE02020200000023
:10043600007F40404000000C30C00000000000007B
:1004460000010638C00000020202FE000000004063
:1004560040407F0000000000040202020400000089
:100466000000000000000000000000000000808086
:10047600808080808080000202040000000000006E
:10048600000000000000000080808080000000194D
:10049600242222223F2008F8008080000000003F2E
:1004A600112020110E000000008080800000000E48
:1004B600112020201100000000808088F800000E26
:1004C600112020103F200000808080800000001F47
:1004D600222222221300008080F0888888180020BB
:1004E600203F202000000000808080808000006B7C
:1004F60094949493600008F8008080800000203F68
:10050600210000203F200080989800000000002075
:10051600203F20200000000000809898000000C0C6
:100526008080807F000008F8000080808000203FE7
:1005360024022D302000000808F8000000000020EA
:10054600203F202000008080808080808000203F27
:1005560020003F20003F8080008080800000203FF8
:10056600210000203F200000808080800000001FC6
:10057600202020201F00808000808000000080FF57
:10058600A12020110E000000008080808000000E57
:10059600112020A0FF8080808000808080002020A5
:1005A6003F21200001000000808080808000003311
:1005B600242424241900008080E0808000000000AC
:1005C600001F202000008080000000808000001FA7
:1005D600202020103F208080800000808080000145
:1005E6000E300806010080800080008080800F3079
:1005F6000C030C300F0000808000808080000020FB
:10060600312E0E3120008080800000808080808125
:100616008E70180601000080808080808000002196
:10062600302C2221300000000000807C02020000F5
:100636000000003F404000000000FF0000000000F6
:100646000000FF0000000002027C80000000004065
:10065600403F000000000006010102020404000001
:060666000000000000008E
:10193500022500000231005A0233005A022300003A
:10194500023500000A27000000000000000000002A
:0C14BC007B007511017512F4AF0BAE0A35
:1014C8008E0C8F0D8B0E8A0F8910120D09FFC3E544
:1014D8000D9FE50C95F0502CAB0EAA0FA910120D1C
:1014E80009C3950DFFE5F0950CFEC3EF940CEE943F
:1014F80000401174FF75F0F4120D34AF12AE1112E2
:10150800197680D4AB0EAA0FA910120D09FFD3E5E6
:101518000D9FE50C95F0402DAB0EAA0FA910120DEA
:1015280009FFC3E50D9FFFE50C95F0FEC3EF940C92
:10153800EE94004010E475F00C120D34AF12AE11A9
:0615480012197680D32287
:10140A00E4F50AF50BF50875090274272509F8E6CB
:10141A00FB6456602BAE0AAF0B7C007D0A120CA24D
:10142A008E0A8F0BEB24D0FFE434FFFEEF250BF579
:10143A000BEE350AF50A0509E50970CE050880CADA
:10144A00C3E50A94004012D3E50B94B4E50A94006C
:10145A0050077A0079311214BCE4F50AF50B7427A7
:10146A002509F8E6644560300509E50970020508B2
:10147A00AE0AAF0B7C007D0A120CA28E0A8F0B7487
:10148A00272509F8E624D0FFE434FFFEEF250BF503
:10149A000BEE350AF50A80C6C3E50A94004012D35A
:1014AA00E50B94B4E50A940050077A0079331214D4
:0114BA00BC75
:0114BB00220E
:0300230002165C66
:10165C00C0E0C0F0C083C082C0D075D000C000C054
:10166C0001C002C003C004C005C006C00730983AD0
:10167C00E599B4530675230075240074272524F8C6
:10168C00A6990524E52470020523E599B44514E5D3
:10169C002664024525700312140A7B007A00792710
:1016AC001219A9AF99120003C298D007D006D00521
:1016BC00D004D003D002D001D000D0D0D082D083BF
:0516CC00D0F0D0E03277
:03000B000215DA01
:1015DA00C0E0C0F0C0D075D000C000C004C005C0D3
:1015EA0006C007758AA4758CFF0536E536700205B4
:1015FA0035AE35FF7C007DC8120CB48C358D36AE05
:10160A0031AF327C007D0C120CB4EF2405FFE43EAE
:10161A00FEC3E5369FE5359E5004D2A28002C2A2DF
:10162A00AE33AF347C007D0C120CB4EF2405FFE41A
:10163A003EFEC3E5369FE5359E5004D2A18002C224
:10164A00A1D007D006D005D004D000D0D0D0F0D099
:02165A00E0327C
:0119DC0022E8
:0119DD0022E7
:101341008E198F1A121990E52645257040E51A6409
:101351000245197005F525752601E51A640145193F
:101361007005F5257526027BFF7A007926E4FDFFDD
:101371001218C17BFF7A007932E4FD7F011218C196
:101381007BFF7A00793EE4FD7F021218C1E52664F5
:1013910001452570477BFF7A00794AFDFF1218C18C
:1013A1007BFF7A007955E4FD7F011218C17BFF7A3A
:1013B100007960E4FD7F021218C1E51A6402451943
:1013C10070031219DCE51A6401451970031219DD65
:1013D100E51A640B45197004F525F526E526640226
:1013E100452570247BFF7A00796AFDFF1218C17BC5
:1013F100FF7A007977E4FD7F011218C1E51A640BC9
:0914010045197004F525F52622B9
:1017F600E4F513F514F515F516F51775180112121B
:101806006212199012000E121914E4FFFE8019E5F7
:1018160014451370181210758E158F1685151385BD
:101826001614E516451560E712134180E2AF14AEB3
:101836001312117AEF4E70D7F513F514F515F51648
:0218460080CD53
:0300000002154E98
:0C154E00787FE4F6D8FD758155021595F4
:100C5C00BB010689828A83E0225002E722BBFE0296
:090C6C00E32289828A83E49322C9
:100C7500BB010CE58229F582E5833AF583E0225034
:100C850006E92582F8E622BBFE06E92582F8E2227E
:0D0C9500E58229F582E5833AF583E4932298
:100CA200EF8DF0A4A8F0CF8CF0A428CE8DF0A42E66
:020CB200FE2220
:100CB400BC000BBE0029EF8DF084FFADF022E4CC24
:100CC400F875F008EF2FFFEE33FEEC33FCEE9DECED
:100CD400984005FCEE9DFE0FD5F0E9E4CEFD22ED33
:100CE400F8F5F0EE8420D21CFEADF075F008EF2F7D
:100CF400FFED33FD4007985006D5F0F222C398FD6E
:050D04000FD5F0EA220A
:100D0900BB010A89828A83E0F5F0A3E022500687B5
:100D1900F009E71922BBFE07E3F5F009E319228977
:0B0D2900828A83E493F5F074019322AA
:100D3400BB010789828A83020EBA500B09C5F027CA
:100D4400F7C5F01937F722BBFE0D09F8E325F0F3D8
:100D5400C5F019E338F322F889828A837401932554
:080D6400F0C5F0F8E493382219
:100D6C00E88FF0A4CC8BF0A42CFCE98EF0A42CFC26
:100D7C008AF0EDA42CFCEA8EF0A4CDA8F08BF0A4A4
:100D8C002DCC3825F0FDE98FF0A42CCD35F0FCEB03
:100D9C008EF0A4FEA9F0EB8FF0A4CFC5F02ECD39C8
:0F0DAC00FEE43CFCEAA42DCE35F0FDE43CFC2235
:100DBB0075F008758200EF2FFFEE33FECD33CDCCEF
:100DCB0033CCC58233C5829BED9AEC99E582984072
:100DDB000CF582EE9BFEED9AFDEC99FC0FD5F0D64F
:100DEB00E4CEFBE4CDFAE4CCF9A88222B800C1B979
:100DFB000059BA002DEC8BF084CFCECDFCE5F0CBB7
:100E0B00F97818EF2FFFEE33FEED33FDEC33FCEBEF
:100E1B0033FB10D703994004EB99FB0FD8E5E4F9AA
:100E2B00FA227818EF2FFFEE33FEED33FDEC33FC97
:100E3B00C933C910D7059BE99A4007EC9BFCE99A8B
:100E4B00F90FD8E0E4C9FAE4CCFB2275F010EF2FD0
:100E5B00FFEE33FEED33FDCC33CCC833C810D707D0
:100E6B009BEC9AE899400AED9BFDEC9AFCE899F80B
:0E0E7B000FD5F0DAE4CDFBE4CCFAE4C8F9229E
:100E8900EB9FF5F0EA9E42F0E99D42F0E89C45F0BF
:010E99002236
:100E9A007401FF3395E0FEFDFC080808E6CF2FF643
:100EAA0018E6CE3EF618E6CD3DF618E6CC3CF6221C
:10155A000217F6E493A3F8E493A34003F68001F29A
:10156A0008DFF48029E493A3F85407240CC8C33392
:10157A00C4540F4420C8834004F456800146F6DF61
:10158A00E4800B0102040810204080901935E47EA3
:10159A00019360BCA3FF543F30E509541FFEE49356
:1015AA00A360010ECF54C025E060A840B8E493A31D
:1015BA00FAE493A3F8E493A3C8C582C8CAC583CA48
:1015CA00F0A3C8C582C8CAC583CADFE9DEE780BE00
:011955000091
:100EBA00C5F0F8A3E028F0C5F0F8E58215827002C3
:060ECA001583E038F02260
:00000001FF
