:10178A00D3EF9400EE94004010007D027CC7DCFE8B
:09179A00DDFCEF1F70EA1E80E780
:0117A3002223
:100ED6007590FFC29320940C7F147E0012178A7EB1
:100EE600007F0D2220950C7F147E0012178A7E004B
:100EF6007F092220960C7F147E0012178A7E007FBF
:100F0600052220970C7F147E0012178A7E007F012F
:100F160022D293C29220940C7F147E0012178A7EEE
:100F2600007F0E2220950C7F147E0012178A7E0009
:100F36007F0A2220960C7F147E0012178A7E007F7D
:100F4600062220970C7F147E0012178A7E007F02ED
:100F560022D292C29120940C7F147E0012178A7EB0
:100F6600007F0F2220950C7F147E0012178A7E00C8
:100F76007F0B2220960C7F147E0012178A7E007F3C
:100F8600072220970C7F147E0012178A7E007F03AB
:100F960022D291C29020940C7F147E0012178A7E72
:100FA600007F102220950C7F147E0012178A7E0087
:100FB6007F0C2220960C7F147E0012178A7E007FFB
:100FC600082220970C7F147E0012178A7E007F0469
:050FD60022E4FEFF22F1
:100FDB007590FFEE6003021082EF14B41000400313
:100FEB00021082900FFC75F003A4C58325F0C58316
:100FFB007302102C0210300210340210380210420F
:10100B0002104602104A02104E02105802105C02E7
:10101B00106002106402106E021072021076021041
:10102B007AC293800AC2928006C2918002C29075E6
:10103B0015007516078040C293800AC2928006C2C3
:10104B00918002C290751500751606802AC2938096
:10105B000AC2928006C2918002C290751500751665
:10106B00058014C293800AC2928006C2918002C28C
:10107B0090751500751604E516640445157005206A
:10108B0094028025E51664054515700520950280B0
:10109B0018E516640645157005209602800BE516BB
:1010AB00640745157007209704FE7F01227F147E8D
:0710BB000012178AE4FEFF9A
:0110C200220B
:100672000000000000000000000000000000000078
:10068200000000F80000000000000033300000000D
:1006920000100C06100C0600000000000000000014
:1006A20040C07840C0784000043F04043F04040086
:1006B200007088FC08300000001820FF211E000096
:1006C200F008F000E018000000211C031E211E00AB
:1006D20000F00888700000001E2123241927211031
:1006E20010160E00000000000000000000000000D4
:1006F200000000E01804020000000007182040007B
:1007020000020418E000000000402018070000006A
:10071200404080F0804040000202010F01020200CE
:10072200000000F0000000000101011F01010100B2
:10073200000000000000000080B070000000000017
:1007420000000000000000000001010101010101A0
:100752000000000000000000003030000000000037
:10076200000000008060180400601806010000000C
:1007720000E010080810E000000F102020100F0009
:10078200001010F8000000000020203F2020000090
:1007920000700808088870000030282422213000E8
:1007A20000300888884830000018202020110E00F0
:1007B2000000C02010F8000000070424243F240099
:1007C20000F80888880808000019212020110E006E
:1007D20000E0108888180000000F112020110E0080
:1007E20000380808C83808000000003F0000000078
:1007F2000070880808887000001C222121221C0039
:1008020000E010080810E0000000312222110F0061
:10081200000000C0C00000000000003030000000F6
:100822000000008000000000000080600000000066
:10083200000080402010080000010204081020007F
:1008420040404040404040000404040404040400CA
:10085200000810204080000000201008040201005F
:10086200007048080808F00000000030360100005F
:10087200C030C828E810E0000718272423140B0012
:100882000000C038E0000000203C2302022738208C
:1008920008F8888888700000203F202020110E0070
:1008A200C030080808083800071820202010080067
:1008B20008F808080810E000203F202020100F0050
:1008C20008F88888E8081000203F2020232018001C
:1008D20008F88888E8081000203F20000300000084
:1008E200C03008080838000007182020221E020025
:1008F20008F808000008F808203F210101213F20E4
:10090200000808F8080800000020203F202000000E
:1009120000000808F8080800C08080807F000000FE
:1009220008F888C028180800203F20012638200037
:1009320008F8080000000000203F2020202030009E
:1009420008F8F800F8F80800203F003F003F2000B8
:1009520008F830C00008F808203F200007183F00C0
:10096200E01008080810E0000F10202020100F00EF
:1009720008F808080808F000203F210101010000E2
:10098200E01008080810E0000F18242438504F0027
:1009920008F8888888887000203F2000030C3020E7
:1009A20000708808080838000038202121221C0025
:1009B200180808F8080818000000203F200000006E
:1009C20008F808000008F808001F202020201F0057
:1009D2000878880000C83808000007380E010000B7
:1009E200F80800F80008F800033C0700073C030081
:1009F200081868808068180820302C03032C3020E7
:100A02000838C800C83808000000203F2000000055
:100A120010080808C83808002038262120201800AD
:100A2200000000FE020202000000007F4040400081
:100A3200000C30C000000000000000010638C000B9
:100A420000020202FE000000004040407F00000061
:100A52000000040202020400000000000000000086
:100A62000000000000000000808080808080808084
:100A7200000202040000000000000000000000006C
:100A820000008080808000000019242222223F2062
:100A920008F8008080000000003F112020110E00A5
:100AA2000000008080800000000E11202020110034
:100AB200000000808088F800000E112020103F20E6
:100AC2000000808080800000001F2222222213006A
:100AD200008080F0888888180020203F20200000B5
:100AE2000000808080808000006B9494949360006A
:100AF20008F8008080800000203F210000203F2075
:100B020000809898000000000020203F2020000074
:100B1200000000809898000000C08080807F000064
:100B220008F8000080808000203F24022D30200041
:100B3200000808F8000000000020203F20200000EC
:100B42008080808080808000203F20003F20003F06
:100B52008080008080800000203F210000203F2014
:100B62000000808080800000001F202020201F00C5
:100B7200808000808000000080FFA12020110E00F4
:100B82000000008080808000000E112020A0FF80E5
:100B9200808080008080800020203F212000010092
:100BA20000008080808080000033242424241900E7
:100BB200008080E0808000000000001F20200000F4
:100BC2008080000000808000001F202020103F2035
:100BD200808080000080808000010E3008060100C5
:100BE20080800080008080800F300C030C300F006A
:100BF20000808000808080000020312E0E31200095
:100C0200808080000080808080818E7018060100C4
:100C120000808080808080000021302C22213000E2
:100C220000000000807C020200000000003F404003
:100C320000000000FF00000000000000FF000000B4
:100C42000002027C800000000040403F00000000E3
:100C5200000601010202040400000000000000007E
:0917E000D2B3D2B2C2B3C2B222EC
:0717E900C2B3D2B2D2B32259
:0716A500AC071217E07F788B
:0216AC00AD0788
:1016AE00E4FB7E007480A803088006CEA2E713CE6A
:1016BE0013D8F8FFEDF582EF558224FF92B3D2B224
:0A16CE00C2B20BBB08DCD2B2C2B2FC
:0116D80022EF
:1017D0001216A5E4FF1216ACAF041216AC0217E9FC
:10174D003EF583E5822AF582E43583F583E493FF44
:10175D001216A57F401216ACAF041216AC0217E993
:09170700FFE51E1475F008A4FDB5
:10171000AA05EF44B0FF1217D0EA54F0C4540F44A6
:0C17200010FF1217D0EA540FFF0217D080
:1017A400E4F9AF01E4FD121710E4FAE4FF12175D47
:0817B4000ABA80F709B908EA3E
:0117BC00220A
:061529008F1D8D1EA903B9
:10152F00E51D1425E0121707E4FAE9FF3395E0FEF5
:10153F00EFC4F8540FC868FFEEC454F048FE74723D
:10154F002FF582740412174D0ABA08DEE51D25E047
:10155F0014121707E4FAE9FF3395E0FEEFC4F854CD
:10156F000FC868FFEEC454F048FE747A2FF58274EA
:08157F000412174D0ABA08DE40
:011587002241
:0A16D9008F158D168B178A188919DA
:1016E300E4F51AAB17AA18A919851A827583001293
:1016F3000C7BFB600EE516251AFDAF1512152905A7
:031703001A80E069
:0117060022C0
:081620008F208E1F8D1E8C1D12
:10162800E4752801F527F526F525782174FF120EB3
:10163800A2EC4D4E4F601DAF28AE27AD26AC25ABB2
:1016480020AA1FA91EA81D120D728F288E278D266D
:0C1658008C2580D6AF28AE27AD26AC252F
:011664002263
:041465008F158D163C
:10146900E4F51CE51CC3951B5054C3E51B951CFFF3
:10147900E49400CF24FFCF34FFFE3395E08F248E10
:1014890023F522F5217F0A7E007D007C00121620BB
:10149900A804A905AA06AB07AF1AAE19AD18AC176F
:1014A900120DFDE47B0AFAF9F8120DFDEB2430FB6D
:0E14B900E516251CFDAF15121529051C80A592
:0114C7002202
:1010C300E4F518F517F516F515E47FC8FEFDFCAB3E
:1010D30018AA17A916A815C3120E8F504CE4F51CB5
:1010E300F51BF51AF519E47FF47E01FDFCAB1CAA90
:1010F3001BA91AA819C3120E8F5017E51C2401F55A
:101103001CE4351BF51BE4351AF51AE43519F519FA
:1011130080D4E5182401F518E43517F517E43516DE
:10112300F516E43515F51580A07FAE1217D07FD5DF
:101133001217D07F801217D07FA81217D07F3F12CB
:1011430017D07FD31217D0E4FF1217D07F401217A6
:10115300D07FA11217D07FC81217D07FDA1217D011
:101163007F121217D07F811217D07FCF1217D07F33
:10117300D91217D07FF11217D07FDB1217D07F302F
:101183001217D07FA41217D07FA61217D07F8D120B
:0F11930017D07F141217D07FAF1217D00217A4F6
:10000E005389F0438901758CFF758AA4C28DD2A9DC
:05001E00D2AFD28C22DC
:10172C0053877F759850538EBF538EFE53890F434A
:10173C008920758BFD758DFDC2ABD28ED2ACD2AF2C
:01174C00227A
:080003008F993099FDC299228A
:1017BD00120C62FF600C120003740129F9E43AFA6D
:0317CD0080EE2289
:1000260020204D6F6465733A00312E64726177202B
:100036004C696E6500322E4D616E75616C20416EA5
:10004600676C65002020205541525400436F6E7442
:10005600726F6C6C696E6700416E676C653A003151
:100066002E61646420343564656700322E737562D0
:1000760074726163742034356465670000000000A3
:10008600000000000000000000000000000000F872
:1000960000000000000000333000000000100C06D5
:1000A600100C0600000000000000000040C0784070
:1000B600C0784000043F04043F040400007088FC3C
:1000C60008300000001820FF211E0000F008F00094
:1000D600E018000000211C031E211E0000F0088805
:1000E600700000001E2123241927211010160E006F
:1000F600000000000000000000000000000000E01A
:10010600180402000000000718204000000204182E
:10011600E00000000040201807000000404080F08A
:10012600804040000202010F01020200000000F0C0
:10013600000000000101011F010101000000000094
:100146000000000080B07000000000000000000009
:100156000000000000010101010101010000000092
:100166000000000000303000000000000000000029
:1001760080601804006018060100000000E0100806
:100186000810E000000F102020100F00001010F8DB
:10019600000000000020203F20200000007008081A
:1001A600088870000030282422213000003008889A
:1001B600884830000018202020110E000000C020C2
:1001C60010F8000000070424243F240000F80888E3
:1001D600880808000019212020110E0000E0108870
:1001E60088180000000F112020110E0000380808A2
:1001F600C83808000000003F0000000000708808B2
:1002060008887000001C222121221C0000E0100832
:100216000810E0000000312222110F00000000C08B
:10022600C000000000000030300000000000008028
:100236000000000000008060000000000000804018
:100246002010080000010204081020004040404031
:100256004040400004040404040404000008102084
:1002660040800000002010080402010000704808C9
:100276000808F0000000003036010000C030C82831
:10028600E810E0000718272423140B000000C038EC
:10029600E0000000203C23020227382008F8888866
:1002A60088700000203F202020110E00C030080872
:1002B60008083800071820202010080008F8080849
:1002C6000810E000203F202020100F0008F8888842
:1002D600E8081000203F20202320180008F888880E
:1002E600E8081000203F200003000000C030080886
:1002F6000838000007182020221E020008F808000F
:100306000008F808203F210101213F20000808F8D5
:10031600080800000020203F2020000000000808F8
:10032600F8080800C08080807F00000008F888C0B8
:1003360028180800203F20012638200008F8080069
:1003460000000000203F20202020300008F8F800A0
:10035600F8F80800203F003F003F200008F830C0B2
:100366000008F808203F200007183F00E0100808A2
:100376000810E0000F10202020100F0008F80808D1
:100386000808F000203F210101010000E0100808E4
:100396000810E0000F18242438504F0008F8888809
:1003A60088887000203F2000030C302000708808E9
:1003B600080838000038202121221C00180808F8F7
:1003C600080818000000203F2000000008F8080078
:1003D6000008F808001F202020201F000878880049
:1003E60000C83808000007380E010000F80800F8B9
:1003F6000008F800033C0700073C03000818688063
:100406008068180820302C03032C30200838C800D8
:10041600C83808000000203F200000001008080827
:10042600C83808002038262120201800000000FEC9
:10043600020202000000007F40404000000C30C075
:1004460000000000000000010638C00000020202A1
:10045600FE000000004040407F0000000000040253
:10046600020204000000000000000000000000007E
:10047600000000008080808080808080000202046E
:100486000000000000000000000000000000808066
:10049600808000000019242222223F2008F80080D4
:1004A60080000000003F112020110E000000008097
:1004B60080800000000E1120202011000000008026
:1004C6008088F800000E112020103F200000808058
:1004D60080800000001F222222221300008080F06C
:1004E600888888180020203F202000000000808097
:1004F60080808000006B94949493600008F80080DC
:1005060080800000203F210000203F200080989836
:10051600000000000020203F202000000000008096
:100526009898000000C08080807F000008F80000D6
:1005360080808000203F24022D302000000808F82B
:10054600000000000020203F2020000080808080E6
:1005560080808000203F20003F20003F8080008078
:1005660080800000203F210000203F200000808086
:1005760080800000001F202020201F008080008037
:100586008000000080FFA12020110E0000000080E6
:1005960080808000000E112020A0FF8080808000D7
:1005A6008080800020203F21200001000000808004
:1005B600808080000033242424241900008080E0F9
:1005C600808000000000001F2020000080800000C6
:1005D60000808000001F202020103F2080808000A7
:1005E6000080808000010E300806010080800080B7
:1005F600008080800F300C030C300F0000808000DC
:10060600808080000020312E0E3120008080800006
:100616000080808080818E701806010000808080B6
:10062600808080000021302C222130000000000054
:10063600807C020200000000003F404000000000F5
:10064600FF00000000000000FF0000000002027C26
:10065600800000000040403F00000000000601014D
:0C0666000202040400000000000000007C
:10176D00022B00000239005A022900000237000046
:0C177D000A2D0000000000000000000029
:10123D007B007A007939750F017510F47F5A7E00A5
:10124D008E0A8F0B8B0C8A0D890E120D0FFFC3E5C5
:10125D000B9FE50A95F0502CAB0CAA0DA90E120DA3
:10126D000FC3950BFFE5F0950AFEC3EF940CEE94BA
:10127D0000401174FF75F0F4120D3AAF10AE0F125D
:10128D00178A80D4AB0CAA0DA90E120D0FFFD3E552
:10129D000B9FE50A95F0402DAB0CAA0DA90E120D72
:1012AD000FFFC3E50B9FFFE50A95F0FEC3EF940C0E
:1012BD00EE94004010E475F00C120D3AAF10AE0F25
:0612CD0012178A80D322F3
:101588008E088F09E5094508604312123DE508C336
:1015980013FEE50913FFC3745A9FFFE49EFE7B0008
:1015A8007A007939750F017510F412124DE508C3E8
:1015B80013FEE50913245AFFE43EFE7B007A007906
:0E15C80039750F017510F412124D12123D22EA
:10166500E4FFFE7B01FA742D2BF8E6F96445601C56
:101675007C007D0A120CA8E924D0FDEC34FFFCEDBA
:101685002FFFEC3EFE0BBB00010A80DAD3EF94B4CA
:0F169500EE94005007C3EE9400400122E4FEFFE4
:0116A4002223
:030023000213F2D3
:1013F200C0E0C0F0C083C082C0D075D000C000C0C1
:1014020001C002C003C004C005C006C0073098383E
:10141200E599B45306752900752A00742D252AF81A
:10142200A699052AE52A70020529E599B44517E52A
:101432002C6401452B70061216651215887B007A02
:1014420000792D1217BDC298D007D006D005D0045E
:10145200D003D002D001D000D0D0D082D083D0F03F
:03146200D0E032A5
:03000B000214C814
:1014C800C0E0C0F0C0D075D000C000C004C005C0E6
:1014D80006C007758AA4758CFF0538E538700205C3
:1014E80037AE37FF7C007DC8120CBA8C378D38AE0A
:1014F80039AF3A7C007D0C120CBAEF2405FFE43EAC
:10150800FEC3E5389FE5379E5004D2A18002C2A1F0
:10151800D007D006D005D004D000D0D0D0F0D0E08D
:011528003290
:1012D300E52C452B7018EF64024E7006F52B752C28
:1012E3000222EF64014E7006F52B752C0122E52CCA
:1012F3006401452B7008EF640B4E70028060E52C8F
:101303006402452B705CEF64024E7022E53A24D3ED
:10131300FDE53934FFFCC394004047D3ED94B4ECAE
:101323009400503E74D3253AF53A74FF8025EF6458
:10133300014E7024E53A242DFDE43539FCD3ED94B8
:10134300B4EC9400501CC3EC94004016742D253A61
:10135300F53AE43539F53922EF640B4E7004F52B79
:03136300F52C2244
:1011A200C2AF1217A4E52C452B70277BFF7A00797A
:1011B200267D017F011216D97BFF7A00792F7D01EE
:1011C2007F021216D97BFF7A00793B7D017F0312E1
:1011D20016D9E52C6401452B701A7BFF7A00794AF7
:1011E2007D017F011216D97BFF7A0079527D017F42
:1011F200021216D9E52C6402452B703C7BFF7A0063
:10120200795E7D017F011216D9E4853A1A85391972
:10121200F518F517751B037D077F011214657BFF17
:101222007A0079657D017F021216D97BFF7A0079F7
:0B123200717D017F031216D9D2AF229C
:1015D600E4F511F512F513F5141210C312000E12EC
:1015E600172C801CE5124511701B120ED68E138F18
:1015F60014851311851412E514451360E71212D3EE
:101606001211A280DFAF12AE11120FDBEF4E70D4B3
:0A161600F511F512F513F51480CA62
:0300000002136682
:0C136600787FE4F6D8FD75813A0213ADE3
:100C6200BB010689828A83E0225002E722BBFE0290
:090C7200E32289828A83E49322C3
:100C7B00BB010CE58229F582E5833AF583E022502E
:100C8B0006E92582F8E622BBFE06E92582F8E22278
:0D0C9B00E58229F582E5833AF583E4932292
:100CA800EF8DF0A4A8F0CF8CF0A428CE8DF0A42E60
:020CB800FE221A
:100CBA00BC000BBE0029EF8DF084FFADF022E4CC1E
:100CCA00F875F008EF2FFFEE33FEEC33FCEE9DECE7
:100CDA00984005FCEE9DFE0FD5F0E9E4CEFD22ED2D
:100CEA00F8F5F0EE8420D21CFEADF075F008EF2F77
:100CFA00FFED33FD4007985006D5F0F222C398FD68
:050D0A000FD5F0EA2204
:100D0F00BB010A89828A83E0F5F0A3E022500687AF
:100D1F00F009E71922BBFE07E3F5F009E319228971
:0B0D2F00828A83E493F5F074019322A4
:100D3A00BB010789828A83020EC0500B09C5F027BE
:100D4A00F7C5F01937F722BBFE0D09F8E325F0F3D2
:100D5A00C5F019E338F322F889828A83740193254E
:080D6A00F0C5F0F8E493382213
:100D7200E88FF0A4CC8BF0A42CFCE98EF0A42CFC20
:100D82008AF0EDA42CFCEA8EF0A4CDA8F08BF0A49E
:100D92002DCC3825F0FDE98FF0A42CCD35F0FCEBFD
:100DA2008EF0A4FEA9F0EB8FF0A4CFC5F02ECD39C2
:0F0DB200FEE43CFCEAA42DCE35F0FDE43CFC222F
:100DC10075F008758200EF2FFFEE33FECD33CDCCE9
:100DD10033CCC58233C5829BED9AEC99E58298406C
:100DE1000CF582EE9BFEED9AFDEC99FC0FD5F0D649
:100DF100E4CEFBE4CDFAE4CCF9A88222B800C1B973
:100E01000059BA002DEC8BF084CFCECDFCE5F0CBB0
:100E1100F97818EF2FFFEE33FEED33FDEC33FCEBE9
:100E210033FB10D703994004EB99FB0FD8E5E4F9A4
:100E3100FA227818EF2FFFEE33FEED33FDEC33FC91
:100E4100C933C910D7059BE99A4007EC9BFCE99A85
:100E5100F90FD8E0E4C9FAE4CCFB2275F010EF2FCA
:100E6100FFEE33FEED33FDCC33CCC833C810D707CA
:100E71009BEC9AE899400AED9BFDEC9AFCE899F805
:0E0E81000FD5F0DAE4CDFBE4CCFAE4C8F92298
:100E8F00EB9FF5F0EA9E42F0E99D42F0E89C45F0B9
:010E9F002230
:100EA0007401FF3395E0FEFDFC080808E6CF2FF63D
:100EB00018E6CE3EF618E6CD3DF618E6CC3CF62216
:101372000215D6E493A3F8E493A34003F68001F2A6
:1013820008DFF48029E493A3F85407240CC8C3337C
:10139200C4540F4420C8834004F456800146F6DF4B
:1013A200E4800B010204081020408090176DE47E57
:1013B200019360BCA3FF543F30E509541FFEE49340
:1013C200A360010ECF54C025E060A840B8E493A307
:1013D200FAE493A3F8E493A3C8C582C8CAC583CA32
:1013E200F0A3C8C582C8CAC583CADFE9DEE780BEEA
:01178900005F
:100EC000C5F0F8A3E028F0C5F0F8E58215827002BD
:060ED0001583E038F0225A
:00000001FF
