:1002C800020A0000050C00000000000208000002FD
:0302D80011000012
:03000B0002019A55
:10019A00C0E0C0F0C0D075D000C000C004C005C027
:1001AA0006C007758AA4758CFF0512E51270020550
:1001BA0011AE11FF7C007DC81200DD8C118D12AECC
:1001CA000AAF0B7C007D0C1200DDEF2405FFE43E34
:1001DA00FEC3E5129FE5119E5004D2A18002C2A17E
:1001EA00D007D006D005D004D000D0D0D0F0D0E0CF
:0101FA0032D2
:10024D00E4FFFE7B01FA740C2BF8E6F96445601CA3
:10025D007C007D0A1200CBE924D0FDEC34FFFCEDCF
:10026D002FFFEC3EFE0BBB00010A80DAD3EF94B4F6
:0F027D00EE9400500AC3EE940040048E0A8F0BDB
:01028C00224F
:03002300020132A5
:10013200C0E0C0F0C083C082C0D075D000C000C093
:1001420001C002C003C004C005C006C00730982D1C
:10015200E599B45306750800750900740C2509F871
:10016200A6990509E50970020508E599B4450C123E
:10017200024D7B007A00790C1202DCC298D007D0C3
:1001820006D005D004D003D002D001D000D0D0D008
:0801920082D083D0F0D0E032EE
:1001FB0012028D12000EAE0AAF0B7C007D64120052
:10020B00DDEF2430FF120003AE0AAF0B7C007D64E0
:10021B001200DD7E007F0ACFCDCFCECCCE1200DD1B
:10022B00EF2430FF120003AE0AAF0B7C007D0A12E5
:10023B0000DDED2430FF1200037FF47E011202AECD
:02024B0080B47D
:1002AE00D3EF9400EE94004010007D027CC7DCFE7C
:0902BE00DDFCEF1F70EA1E80E771
:0102C7002214
:10000E005389F0438901758CFF758AA4C28DD2A9DC
:05001E00D2AFD28C22DC
:10028D0053877F759850538EBF538EFE53890F43FE
:10029D008920758BFD758DFDC2ABD28ED2ACD2AFE0
:0102AD00222E
:080003008F993099FDC299228A
:1002DC001200B2FF600C120003740129F9E43AFA1F
:0302EC0080EE227F
:03000000020026D5
:0C002600787FE4F6D8FD75811202006DB1
:1000B200BB010689828A83E0225002E722BBFE024C
:0900C200E32289828A83E493227F
:1000CB00EF8DF0A4A8F0CF8CF0A428CE8DF0A42E49
:0200DB00FE2203
:1000DD00BC000BBE0029EF8DF084FFADF022E4CC07
:1000ED00F875F008EF2FFFEE33FEEC33FCEE9DECD0
:1000FD00984005FCEE9DFE0FD5F0E9E4CEFD22ED16
:10010D00F8F5F0EE8420D21CFEADF075F008EF2F5F
:10011D00FFED33FD4007985006D5F0F222C398FD50
:05012D000FD5F0EA22ED
:100032000201FBE493A3F8E493A34003F68001F2E8
:1000420008DFF48029E493A3F85407240CC8C333CF
:10005200C4540F4420C8834004F456800146F6DF9E
:10006200E4800B01020408102040809002C8E47E64
:10007200019360BCA3FF543F30E509541FFEE49393
:10008200A360010ECF54C025E060A840B8E493A35A
:10009200FAE493A3F8E493A3C8C582C8CAC583CA85
:1000A200F0A3C8C582C8CAC583CADFE9DEE780BE3D
:0102DB000022
:00000001FF
