:1003D200020A0000050C00000000000208000002F2
:0303E20011000007
:03000B0002029955
:10029900C0E0C0F0C0D075D000C000C004C005C027
:1002A90006C007758AE9758CFF0512E5127002050B
:1002B90011AE11FF7C037D201200518C118D12AEFD
:1002C9000AAF0B7C007D03120051EF2414FFE43EBA
:1002D900FEC3E5129FE5119E5004D2A18002C2A17E
:1002E900D007D006D005D004D000D0D0D0F0D0E0CF
:0102F90032D2
:1001AB008E138F148B158A1689171200A6FFC3E5C1
:1001BB00149FE51395F0502CAB15AA16A917120036
:1001CB00A6C39514FFE5F09513FEC3EF9403EE94CD
:1001DB0000401174FF75F0FD1200D1AF19AE18126B
:1001EB0003B880D4AB15AA16A9171200A6FFD3E546
:1001FB00149FE51395F0402DAB15AA16A917120005
:10020B00A6FFC3E5149FFFE51395F0FEC3EF940320
:10021B00EE94004010E475F0031200D1AF19AE1844
:06022B001203B880D3228B
:10034C00E4FFFE7B01FA740C2BF8E6F96445601CA3
:10035C007C007D0A12003FE924D0FDEC34FFFCED5B
:10036C002FFFEC3EFE0BBB00010A80DAD3EF94B4F6
:10037C00EE94005015C3EE9400400F7B007A007988
:0A038C000A7518007519531201AB31
:010396002244
:03002300020231A5
:10023100C0E0C0F0C083C082C0D075D000C000C093
:1002410001C002C003C004C005C006C00730982D1C
:10025100E599B45306750800750900740C2509F871
:10026100A6990509E50970020508E599B4450C123E
:10027100034C7B007A00790C1203E6C298D007D0B8
:1002810006D005D004D003D002D001D000D0D0D008
:0802910082D083D0F0D0E032EE
:1002FA0012039712000EAE0AAF0B7C007D64120047
:10030A0051EF2430FF120003AE0AAF0B7C007D646C
:10031A001200517E007F0ACFCDCFCECCCE12005133
:10032A00EF2430FF120003AE0AAF0B7C007D0A12E5
:10033A000051ED2430FF1200037FF47E011203B84E
:02034A0080B47D
:1003B800D3EF9400EE94004010007D027CC7DCFE71
:0903C800DDFCEF1F70EA1E80E766
:0103D1002209
:10000E005389F0438901758CFF758AE9C28DD2A997
:05001E00D2AFD28C22DC
:1003970053877F759850538EBF538EFE53890F43F3
:1003A7008920758BFD758DFDC2ABD28ED2ACD2AFD5
:0103B7002223
:080003008F993099FDC299228A
:1003E600120026FF600C120003740129F9E43AFAA0
:0303F60080EE2274
:0300000002011FDB
:0C011F00787FE4F6D8FD758119020166B6
:10002600BB010689828A83E0225002E722BBFE02D8
:09003600E32289828A83E493220B
:10003F00EF8DF0A4A8F0CF8CF0A428CE8DF0A42ED5
:02004F00FE228F
:10005100BC000BBE0029EF8DF084FFADF022E4CC93
:10006100F875F008EF2FFFEE33FEEC33FCEE9DEC5C
:10007100984005FCEE9DFE0FD5F0E9E4CEFD22EDA2
:10008100F8F5F0EE8420D21CFEADF075F008EF2FEC
:10009100FFED33FD4007985006D5F0F222C398FDDD
:0500A1000FD5F0EA227A
:1000A600BB010A89828A83E0F5F0A3E02250068725
:1000B600F009E71922BBFE07E3F5F009E3192289E7
:0B00C600828A83E493F5F0740193221A
:1000D100BB010789828A83020109500B09C5F027F8
:1000E100F7C5F01937F722BBFE0D09F8E325F0F348
:1000F100C5F019E338F322F889828A8374019325C4
:08010100F0C5F0F8E493382288
:10012B000202FAE493A3F8E493A34003F68001F2EE
:10013B0008DFF48029E493A3F85407240CC8C333D5
:10014B00C4540F4420C8834004F456800146F6DFA4
:10015B00E4800B01020408102040809003D2E47E5F
:10016B00019360BCA3FF543F30E509541FFEE49399
:10017B00A360010ECF54C025E060A840B8E493A360
:10018B00FAE493A3F8E493A3C8C582C8CAC583CA8B
:10019B00F0A3C8C582C8CAC583CADFE9DEE780BE43
:0103E5000017
:10010900C5F0F8A3E028F0C5F0F8E5821582700281
:060119001583E038F0221E
:00000001FF
